:060000000A128A110C280F
:10000800FE00030EF9000A08FA000A128A11D9281C
:100018000A128A110F28F001F101F201F301F4012B
:10002800F501F601F701F80183120313A001A101FC
:10003800A201A301A401A501A601A701A801A90184
:10004800AA01AB0183010A128A112A280A128A110D
:1000580070200A128A117803031D33283428622875
:1000680083120313861839283A2862280130AC0015
:100078002C08F707F8016228831203130814C73005
:1000880083120313AC004828AC0B47284B28831273
:10009800031308102F288312031308140330831244
:1000A8000313AD009730AC00AC0B5828AD0B5828A3
:1000B8008312031308102F28F7012F287708003A16
:1000C80003194028013A03194F28033A03196028F5
:1000D8002F280A128A110C28831603178801890110
:1000E8008316031308108701061486140910891053
:1000F80083120313860187018801890104300A12DB
:100108008A11AA200A128A118316031381128111F7
:10011800073081044E3083120313810083160313C2
:10012800811395140A128A11F1200A128A11CF300C
:100138008312031390051015901010108B170B17CE
:100148008B150B108316031396140800FB00CA289E
:10015800831603130F088F3940388F000F14D828DF
:10016800831603130F088F3950388F000F14D828BF
:10017800831603130F088F3960388F000F14D8289F
:100188007030831603138F040F14D8287B08013AA4
:100198000319AC28033A0319B428063A0319BC28F2
:1001A8000C3A0319C428D82808000B1CDC28DD28C1
:1001B800EA28FD30831203130606031DE428E52808
:1001C800E828F801F80AE928F8010B107A088A00EB
:1001D800790E8300FE0E7E0E090083160313181293
:1001E80018151813831603178711831603139A011A
:1001F80019309900831203139817181318128316CD
:0602080003139816080024
:04400E00D420FF3F7C
:00000001FF
