:060000000A128A110C280F
:10000800FE00030EF0000A08F1000A128A11462CBD
:100018000A128A110F28FA01FB0183120313D00177
:10002800D101D20183010A128A112F2B83120313E3
:100038002D088039AE002E08B7002D08AE002E0717
:10004800AF002F08BE00AC1F2A282B282C283E14EE
:100058003E0803193028312841283E0A031D352857
:1000680036283E280030AD000030AC000030AB0030
:100078000030AA00AC17AD0149280030AD000030AF
:10008800AC000030AB000030AA0029088039AE006F
:100098002E08B7062908AE002E07AF002F08BF00AC
:1000A800A81F5728582859283F143F0803195D28C6
:1000B8005E286E283F0A031D622863286B280030DB
:1000C800A9000030A8000030A7000030A600A8173B
:1000D800A90176280030A9000030A8000030A70048
:1000E8000030A6002908280427042604031D7D28BB
:1000F8007E2897280030AD000030AC000030AB00FF
:100108000030AA008030AC047F30AD043708AE0060
:100118002E08AD042D08A9002C08A8002B08A7005C
:100128002A08A600F6293E08031D9B289C28A52816
:100138000030A9000030A8000030A7000030A60059
:10014800F6293E08AE00AF012F08B1003F082E0285
:10015800B000031CB10330087F3EB8003108031813
:10016800013E003EB9002D08B6002C08B5002B084A
:10017800B4002A08B3000030AD000030AC000030F5
:10018800AB000030AA000030BD000030BC000030D9
:10019800BB000030BA00BF011B293F080319D5284E
:1001A800D628F6280130AE000310B30DB40DB50DF6
:1001B800B60DAE0BD8280130AE000310AA0DAB0D5A
:1001C800AC0DAD0DAE0BE128BD1FEB28EC28ED28DA
:1001D8002A140130AE000310BA0DBB0DBC0DBD0DC5
:1001E800AE0BEF2829083602031D0429280835021A
:1001F800031D042927083402031D04292608330295
:10020800031C0729082917293D172608B3022708C0
:10021800031C270FB4022808031C280FB50229085D
:10022800031C290FB6020130AE002E08BF071A3092
:100238003F02031C20292129D1283608350434041B
:10024800330403192829292948293A14482901304F
:10025800AE000310AA0DAB0DAC0DAD0DAE0B2D29E4
:10026800BD1F3729382939292A140130AE00031057
:10027800BA0DBB0DBC0DBD0DAE0B3B29FF30B80749
:100288000318B90AFF30B907AC1F4B294C292B2991
:10029800BF01BD1F502951296D29FF303A05AE0015
:1002A800FF303B05AF00FF303C05B0007F303D0517
:1002B800B100310830042F042E040319642965297C
:1002C8006829BF01BF0A6D292A1C6B296C296D2971
:1002D80065293F08031971297229A3290130AA0742
:1002E800003003180130AB07003003180130AC07A9
:1002F800003003180130AD072D1C83298429A32958
:100308002A08AE002B08AF002C08B0002D08B10059
:100318000130B200310DB10CB00CAF0CAE0CB20B09
:100328008E293108AD003008AC002F08AB002E082C
:10033800AA000130B8070318B90A0030B90739080C
:10034800803AFF0080307F02031DAC29FF3038025D
:10035800031CAF29B029BE29FF3083120313B8004C
:100368000030B9000030AD000030AC000030AB0008
:100378000030AA00831203133908803AFF00803046
:100388007F02031DC929013038020318CC29CD2961
:10039800DA2983120313B801B9010030AD00003027
:1003A800AC000030AB000030AA00B7018312031381
:1003B8003808AE002E08BE003E1CE329E429E629D1
:1003C800AC17EA297F30AE002E08AC053E08AE0017
:1003D80003102E0CAF002F08AD003708AE002E0812
:1003E800AD048E28080083120313A0002008031907
:1003F800FE29FF29132AF51F022A032A132A720944
:10040800A2007309A3007409A4007509A500A20A33
:100418000319A30A0319A40A0319A50A1B2A7508B4
:10042800A5007408A4007308A3007208A200750848
:10043800740473047204031D222A232A2C2A003010
:10044800F5000030F4000030F3000030F200B22A6A
:100458009630F6007608A1003E2A0130F6007608AC
:10046800A10701300310A50CA40CA30CA20CFF3E9D
:10047800031D362AFE302505031D432A442A312A46
:10048800602A0130F6007608A1070130A207003083
:1004980003180130A307003003180130A407003007
:1004A80003180130A50701300310A50CA40CA30CF8
:1004B800A20CFF3E031D582AFF302505031D652A9F
:1004C800662A452A722A0130A1020130F60003107B
:1004D800A20DA30DA40DA50DF60B6B2AA41B752A5E
:1004E800762A7C2A0230210203187B2A7C2A672A72
:1004F80021187F2A802A882AFF30A205FF30A30509
:100508007F30A405FF30A5050310A10C2108F600D3
:10051800F701F801F90118300310F60DF70DF80D81
:10052800F90DFF3E031D902A7608A2047708A3045C
:100538007808A4047908A50420080319A42AA52A80
:10054800AA2AF51FA82AA92AAA2AA5172508F50064
:100558002408F4002308F3002208F200080003101E
:1005680083120313420D430DC4004408CA004A080D
:10057800031DBF2AC02AC92A0030C3000030C200A8
:100588000030C1000030C0002E2B4008C4004108D4
:10059800C5004208C6004308C7001F300310C70C37
:1005A800C60CC50CC40CFF3E031DD22A4408C80063
:1005B8004808C900C217FF30C005FF30C105FF3029
:1005C800C2050030C3059630CA02CA1FEC2AED2ABC
:1005D800072B4A08803A973E0318F32AF42AF52A8B
:1005E800C02A01300310C30CC20CC10CC00CFF3E62
:1005F800031DF62A0130C4004408CA07031D052B51
:10060800062BF52A1E2B20304A02031C0C2B0D2B1F
:10061800192BC02A0130C4000310C00DC10DC20D32
:10062800C30DC40B102B0130CA024A08031D1D2B31
:100638001E2B0E2B49080319222B232B2E2BC00906
:10064800C109C209C309C00A0319C10A0319C20AA8
:100658000319C30A08000A128A11C4230A128A114C
:100668000A128A1185230A128A110A128A112A2467
:100678000A128A11831203135108CB00CC01CD0151
:10068800CE014E08F5004D08F4004C08F3004B0865
:10069800F20000300A128A11F7210A128A1175082D
:1006A80083120313AD007408AC007308AB00720822
:1006B800AA004030A9000230A800F130A700AA30F3
:1006C800A6000A128A111A200A128A118312031329
:1006D8002908C3002808C2002708C1002608C0004E
:1006E8000A128A11B3220A128A11831203134008CC
:1006F800CF004F08D00050088800342B0A128A1106
:100708000C287B03031D892B8A2BB82B8312031318
:1007180086188F2B902BB82B0130F2007208FA073D
:10072800FB01B82B8312031309140330F30097302D
:10073800F200F20B9D2BF30B9D2BA22B83120313BC
:100748000910C32B8312031309140630F300303049
:10075800F200F20BAD2BF30BAD2B00008312031349
:100768000910C32BFA01C32B7A08003A0319962BF8
:10077800013A0319A62B033A0319B62BC32B080019
:1007880083160317880189010814831603130810B8
:100798008614071188010910831203138601870143
:1007A8008801890108300A128A11FB230A128A116A
:1007B8000A128A115E240A128A1183160313071576
:1007C8003F308312031397051708F0390C38970048
:1007D8000F309500CF309705831603130711811347
:1007E80095148B170B178B150B1096140800F20035
:1007F8001B2C831603130F088F3940388F000F14F2
:10080800292C831603130F088F3950388F000F14C3
:10081800292C831603130F088F3960388F000F14A3
:10082800292C7030831603138F040F14292C720897
:10083800013A0319FD2B033A0319052C063A03194B
:100848000D2C0C3A0319152C292C080083120313BC
:100858009F182F2C302C452CD201831603131E0809
:10086800F200720883120313D1000330F3009730AB
:10087800F200F20B3D2CF30B3D2C422C8312031398
:100888009F1408000B1C492C4A2C572CFD3083124E
:1008980003130606031D512C522C552CFB01FB0A91
:1008A800562CFB010B1071088A00700E8300FE0E97
:1008B8007E0E0900831603139F171F129F123F30E5
:1008C800831203139F05C3309F054230F200F20BD9
:0C08D8006B2C0000831203131F14080097
:04400E00D420FF3F7C
:00000001FF
