:060000000A128A110E280D
:10000800FE00030EF7000408F8000A08F9000A12B7
:100018008A1123280A128A111128F001F101F2012C
:10002800F301F40183132030840030300A128A115E
:1000380074210A128A1183010A128A1132290B1CAF
:10004800262827283428FE30831203130606031DAA
:100058002E282F283228F401F40A3328F4010B1033
:100068000B1D3728382867285628831203130914CC
:10007800D630F5003F284028F50B3E2800008312B3
:10008800031309106628831203130914C730F500F7
:100098004D28F50B4C2850285128831203130910BA
:1000A800F30166287308F500F6017608003A03198B
:1000B8005E2866287508013A03193928033A031996
:1000C800472866280B1179088A0078088400770E7B
:1000D8008300FE0E7E0E09008312031305140230FE
:1000E80083120313B000B00B7728000083120313A8
:1000F8000510851C802881287D28101485188528DE
:100108008628822810100E08B000B1013008A80017
:100118003108A9000F08B000B1013008AA00310861
:10012800AB002A08B100B00128083004F000290803
:100138003104F10000307102E93003197002031C28
:10014800A628A728B52800307102FA3003197002D2
:100158000318AF28B028B5280130A0000030A1004E
:10016800B728A001A101F001F1018E018F0108005B
:100178008316031788018901831603130510851454
:100188008801870106140910891083120313860158
:1001980087018801890104300A128A11F9200A129C
:1001A8008A118316031381128111073081044E309E
:1001B80083120313810083160313811315140A1283
:1001C8008A115E210A128A11CF3083120313900517
:1001D8001015901010108B170B178B160B118B1511
:1001E8000B10831603131614080083120313B200AE
:1001F8001B29831603130F088F3940388F000F14FB
:100208003129831603130F088F3950388F000F14C4
:100218003129831603130F088F3960388F000F14A4
:1002280031297030831603138F040F1431293208D3
:10023800B000B1013108003A0319232931293008E7
:10024800013A0319FD28033A03190529063A031947
:100258000D290C3A031915293129080083120313B3
:10026800AE01AF01F2010A128A11BC200A128A11EA
:100278007403031D402941294E29831203130618CC
:10028800462947294E290130B3003308F30773087C
:100298008800F4010A128A1170200A128A11831246
:1002A8000313200C031C8710031887143C290A1217
:1002B8008A110E288316031318121815181383169B
:1002C80003178711831603139A01193099008312B3
:1002D8000313981718131812831603139816080097
:1002E80064008001840A0406031900340406752991
:04400E00D420FF3F7C
:00000001FF
