:060000000A128A110C280F
:10000800FE00030EF2000A08F3000A128A11B82A49
:100018000A128A110F28F601F701F801F901831273
:100028000313D601D701D801D901DA01DB01830115
:100038000A128A112B2D8312031335088039B60052
:100048003608BF003508B6003607B7003708C600BF
:10005800B41F2F283028312846144608031935289C
:1000680036284628460A031D3A283B2843280030EC
:10007800B5000030B4000030B3000030B200B4174F
:10008800B5014E280030B5000030B4000030B30090
:100098000030B20031088039B6003608BF06310892
:1000A800B6003607B7003708C700B01F5C285D28C0
:1000B8005E28471447080319622863287328470AEB
:1000C800031D6728682870280030B1000030B00090
:1000D8000030AF000030AE00B017B1017B2800300F
:1000E800B1000030B0000030AF000030AE00310881
:1000F80030042F042E04031D822883289C280030F6
:10010800B5000030B4000030B3000030B2008030D9
:10011800B4047F30B5043F08B6003608B504350886
:10012800B1003408B0003308AF003208AE00FB2934
:100138004608031DA028A128AA280030B1000030D5
:10014800B0000030AF000030AE00FB294608B60012
:10015800B7013708B90047083602B800031CB903CD
:1001680038087F3EC00039080318013E003EC10030
:100178003508BE003408BD003308BC003208BB0097
:100188000030B5000030B4000030B3000030B200D9
:100198000030C5000030C4000030C3000030C20089
:1001A800C701202947080319DA28DB28FB28013072
:1001B800B6000310BB0DBC0DBD0DBE0DB60BDD2882
:1001C8000130B6000310B20DB30DB40DB50DB60B6A
:1001D800E628C51FF028F128F22832140130B600AD
:1001E8000310C20DC30DC40DC50DB60BF42831089C
:1001F8003E02031D092930083D02031D09292F0865
:100208003C02031D09292E083B02031C0C290D2959
:100218001C2945172E08BB022F08031C2F0FBC02F0
:100228003008031C300FBD023108031C310FBE0219
:100238000130B6003608C7071A304702031C2529C3
:100248002629D6283E083D043C043B0403192D29E1
:100258002E294D2942144D290130B6000310B20D44
:10026800B30DB40DB50DB60B3229C51F3C293D2978
:100278003E2932140130B6000310C20DC30DC40D5F
:10028800C50DB60B4029FF30C0070318C10AFF305F
:10029800C107B41F502951293029C701C51F552945
:1002A80056297229FF304205B600FF304305B700D2
:1002B800FF304405B8007F304505B90039083804D7
:1002C80037043604031969296A296D29C701C70A41
:1002D8007229321C7029712972296A294708031961
:1002E80076297729A8290130B20700300318013090
:1002F800B307003003180130B40700300318013089
:10030800B507351C88298929A8293208B600330879
:10031800B7003408B8003508B9000130BA00390D03
:10032800B90CB80CB70CB60CBA0B93293908B50040
:100338003808B4003708B3003608B2000130C007E7
:100348000318C10A0030C1074108803AFF00803015
:100358007F02031DB129FF304002031CB429B529CF
:10036800C329FF3083120313C0000030C1000030DE
:10037800B5000030B4000030B3000030B200831282
:1003880003134108803AFF0080307F02031DCE2905
:10039800013040020318D129D229DF29831203131F
:1003A800C001C1010030B5000030B4000030B30016
:1003B8000030B200BF01831203134008B6003608AC
:1003C800C600461CE829E929EB29B417EF297F3034
:1003D800B6003608B4054608B6000310360CB70058
:1003E8003708B5003F08B6003608B504932808005A
:1003F80083120313A80028080319032A042A182AB9
:10040800A31F072A082A182A2009AA002109AB00D5
:100418002209AC002309AD00AA0A0319AB0A031983
:10042800AC0A0319AD0A202A2308AD002208AC0043
:100438002108AB002008AA00230822042104200474
:10044800031D272A282A312A0030A3000030A200E1
:100458000030A1000030A000B72A9630A40024087C
:10046800A900432A0130A4002408A9070130031079
:10047800AD0CAC0CAB0CAA0CFF3E031D3B2AFE30A6
:100488002D05031D482A492A362A652A0130A40069
:100498002408A9070130AA07003003180130AB0768
:1004A800003003180130AC07003003180130AD07E5
:1004B80001300310AD0CAC0CAB0CAA0CFF3E031DB5
:1004C8005D2AFF302D05031D6A2A6B2A4A2A772ADE
:1004D8000130A9020130A4000310AA0DAB0DAC0D28
:1004E800AD0DA40B702AAC1B7A2A7B2A812A023014
:1004F80029020318802A812A6C2A2918842A852A25
:100508008D2AFF30AA05FF30AB057F30AC05FF30E0
:10051800AD050310A90C2908A400A501A601A7018F
:1005280018300310A40DA50DA60DA70DFF3E031D41
:10053800952A2408AA042508AB042608AC04270831
:10054800AD0428080319A92AAA2AAF2AA31FAD2A8D
:10055800AE2AAF2AAD172D08A3002C08A2002B083D
:10056800A1002A08A00008000B1DBB2ABC2A072BE3
:1005780076080319C02AC12ADA2A553076020318E8
:10058800C62AC72ADA2A8312031309140330F10092
:100598009730F000F00BCE2AF10BCE2AD32A831223
:1005A80003130910733081000B11072B56307602A4
:1005B800031CDF2AE02AF72AAA3076020318E52A64
:1005C800E62AF72A831203130914D630F000EC2A1E
:1005D800ED2AF00BEB2A00008312031309106F3089
:1005E80081000B11072B831203130914C730F00085
:1005F800FD2AF00BFC2A002B012B83120313091090
:100608006B3081000B11831203138C1D0C2B0D2BE7
:10061800652B1412141B112B122B162B941F152B40
:10062800162B1D2B1308F0007008F70014139413F1
:10063800141683160313941A222B232B412B1419F7
:10064800262B272B412B831203131308F000700865
:10065800F7008C11141683160313141C342B352B36
:100668002F2B831203131308F0007008F700423091
:10067800F000F00B3D2B0000622B941A442B452B05
:10068800622B141D482B492B622B8312031313086A
:10069800F0007008D800831603131410780883122A
:1006A8000313930014164230F000F00B592B00008E
:1006B800831603131418612B622B5C2B831203130C
:1006C8008C1173088A00720E8300FE0E7E0E0900DC
:1006D8000310831203134A0D4B0DCC004C08F50090
:1006E8007508031D782B792B822B0030CB00003046
:1006F800CA000030C9000030C800E72B4808CC0009
:100708004908CD004A08CE004B08CF001F3003101F
:10071800CF0CCE0CCD0CCC0CFF3E031D8B2B4C0804
:10072800D0005008F400CA17FF30C805FF30C905CB
:10073800FF30CA050030CB059630F502F51FA52B12
:10074800A62BC02B7508803A973E0318AC2BAD2B0F
:10075800AE2B792B01300310CB0CCA0CC90CC80C7A
:10076800FF3E031DAF2B0130CC004C08F507031DDD
:10077800BE2BBF2BAE2BD72B20307502031CC52BED
:10078800C62BD22B792B0130CC000310C80DC90D14
:10079800CA0DCB0DCC0BC92B0130F5027508031D12
:1007A800D62BD72BC72B74080319DB2BDC2BE72B95
:1007B800C809C909CA09CB09C80A0319C90A03190A
:1007C800CA0A0319CB0A0800831203135908D10077
:1007D800D201D301D4015408A3005308A20052083F
:1007E800A1005108A00000300A128A11FC210A1247
:1007F8008A11831203132308B5002208B4002108C4
:10080800B3002008B2004030B1000230B000F1302F
:10081800AF00AA30AE000A128A111F200A128A11EC
:10082800831203133108CB003008CA002F08C9000F
:100838002E08C8000A128A116C230A128A11831220
:1008480003134808D5005508F8001D307802031C2A
:100858002E2C2F2C392C323078020318342C352CBE
:10086800392C8316031307113C2C83160313071521
:100878000800831603178801890108148814831651
:100888000313081086140711880109108312031333
:10089800860187018801890104300A128A11CE2451
:1008A8000A128A110A128A1117250A128A11831646
:1008B800031381128111073081044E308312031310
:1008C80081008316031307153F308312031397051E
:1008D8001708F0390C3897000F309500CF3097057E
:1008E800831603138113951460300A128A11FD24AC
:1008F8000A128A118B170B178B150B10831603130B
:1009080096140800831203139F188B2C8C2CCD2C63
:10091800B82CF901831603131E08F4007408831217
:100928000313D900C730F400992CF40B982C9C2C95
:100938009D2C831203131F08C33904389F00C32C4E
:10094800D601831603131E087907F4007408F6000D
:10095800C730F400AF2CF40BAE2CB22CB32CC33040
:10096800831203139F05C32C1F0CF400740C0F395A
:10097800003A03198D2C013A0319A42CC32CC73053
:10098800F400C62CF40BC52CC92CCA2C83120313F3
:100998009F140800F400EE2C831603130F088F39F8
:1009A80040388F000F14FC2C831603130F088F395F
:1009B80050388F000F14FC2C831603130F088F393F
:1009C80060388F000F14FC2C7030831603138F04CB
:1009D8000F14FC2C7408013A0319D02C033A03199C
:1009E800D82C063A0319E02C0C3A0319E82CFC2CF5
:1009F8000800F4007408831603139300363083123A
:100A0800031394008030831603139400013091007F
:100A1800871507168B170B17831203138C11831670
:100A280003138C150800831603139F171F129F12B8
:100A38003F30831203139F05C3309F054230F400F3
:100A4800F40B242D0000831203131F1408000A124C
:100A58008A113D240A128A110A128A1186240A125E
:100A68008A110A128A11E8230A128A11302D0A12F1
:040A78008A110C28AB
:04400E00D420FF3F7C
:00000001FF
