:060000000A128A110E280D
:10000800FE00030EF9000408FA000A08FB000A12B1
:100018008A112C280A128A111128F001F101F20123
:10002800F301F401F50183120313A001A101A20158
:10003800A301A401A501A601A701A801A901AA017C
:10004800AB01AC01AD01AE0183010A128A11B029DE
:10005800831203138C1D3128322888281412141B8C
:10006800362837283B28941F3A283B28422813086B
:10007800F8007808AE0014139413141683160313AB
:10008800941A47284828652814194B284C286528AD
:10009800831203131308F8007808AE008C111416A5
:1000A80083160313141C59285A285428831203133F
:1000B8001308F8007808AD008530F800F80B6228BE
:1000C8008528941A682869288528141D6C286D28A5
:1000D8008528831203131308F8007808AE008316E6
:1000E8000313141070088312031393001416853039
:1000F800F800F80B7D288316031314188428852824
:100108007F28831203138C110C1E8B288C289828A7
:100118000130F8007808F4070A128A1146210A12F9
:100128008A11831203130C127B088A007A08840050
:10013800790E8300FE0E7E0E090083120313B100B0
:10014800C328831603130F088F3940388F000F1404
:10015800D928831603130F088F3950388F000F14CE
:10016800D928831603130F088F3960388F000F14AE
:10017800D9287030831603138F040F14D928310837
:10018800AF00B0013008003A0319CB28D9282F084E
:10019800013A0319A528033A0319AD28063A0319A9
:1001A800B5280C3A0319BD28D9280800831203136F
:1001B800861CDF28E028E42808148810F301F30AD5
:1001C8008618E728E828EB2808108814F301061D8C
:1001D800EE28EF28F32808158811F201F20A06190B
:1001E800F628F728FA2808118815F201861DFD2837
:1001F800FE28022908168812F101F10A8619052934
:100208000629092908128816F10172087307AF0038
:1002180071082F07B0003008F00008008316031794
:10022800880189010814831603130514861406151A
:10023800861509108910071387178801831203137D
:1002480086018801890108300A128A11A1200A1240
:100258008A110A128A119A210A128A110A128A111B
:1002680084210A128A1150300A128A1168210A124E
:100278008A118B170B17831603130C16831203139B
:100288000C12080054297008303E83120313990099
:1002980067292C308312031399006729F401672911
:1002A8007408F600F7017708003A03195C296729F2
:1002B8007608013A03194729043A03194D29113AD6
:1002C800031952296729080083120313AF002F0866
:1002D800831603139300363083120313940080307F
:1002E80083160313940001309100871507168B17A6
:1002F8000B17831203138C11831603138C15080034
:100308008316031318121815181383160317871169
:10031800831603139A01193099008312031398174F
:10032800181318128316031398160800831603135C
:100338009F171F129F123F30831203139F05C3306C
:100348009F05413083120313AF00AF0BA929AC29D5
:10035800831203131F1408000A128A1112210A12A9
:100368008A110A128A11DA200A128A11B5290A1288
:040378008A110E28B0
:04400E00D420FF3F7C
:00000001FF
