:060000000A128A110C280F
:10000800FE00030EF0000A08F1000A168A1164299E
:100018000A128A110F28F601F701F801F901831273
:100028000313BA01BB01BC01BD0183010A168A1181
:100038008329423083120313AD008730AC000530AA
:10004800AB001F30AA007608B600B701B801B901A5
:100058003908F5003808F4003708F3003608F200CC
:1000680001300A128A11FB260A128A1175088312B6
:100078000313B1007408B0007308AF007208AE0033
:100088000A128A1506200A128A1103184C284D28CC
:100098008428760883120313B600B701B801B901A2
:1000A8003908F5003808F4003708F3003608F2007C
:1000B80001300A128A11FB260A128A117508831266
:1000C8000313AD007408AC007308AB007208AA00F3
:1000D8004230B1008B30B0001E30AF00B830AE00F7
:1000E8000A128A1506200A128A1103187C287D280C
:1000F8008428213083120313B6003608BA00FA2E7A
:10010800423083120313AD008B30AC001E30AB00BD
:10011800B830AA007608B600B701B801B9013908A5
:10012800F5003808F4003708F3003608F20001300B
:100138000A128A11FB260A128A1175088312031300
:10014800B1007408B0007308AF007208AE000A125C
:100158008A1506200A128A110318B328B428EB2836
:10016800760883120313B600B701B801B90139083C
:10017800F5003808F4003708F3003608F2000130BB
:100188000A128A11FB260A128A11750883120313B0
:10019800AD007408AC007308AB007208AA004230C6
:1001A800B1008F30B0003830AF005230AE000A12C4
:1001B8008A1506200A128A110318E328E428EB2876
:1001C800223083120313B6003608BA00FA2E4230E2
:1001D80083120313AD008F30AC003830AB005230BF
:1001E800AA007608B600B701B801B9013908F500C8
:1001F8003808F4003708F3003608F20001300A1214
:100208008A11FB260A128A11750883120313B1009A
:100218007408B0007308AF007208AE000A128A159D
:1002280006200A128A1103181A291B29522976084E
:1002380083120313B600B701B801B9013908F500F4
:100248003808F4003708F3003608F20001300A12C3
:100258008A11FB260A128A11750883120313AD004E
:100268007408AC007308AB007208AA004230B100F1
:100278009330B0004C30AF00CD30AE000A128A1572
:1002880006200A128A1103184A294B2952292330B9
:1002980083120313B6003608BA00FA2E42308312CE
:1002A8000313AD009330AC004C30AB00CD30AA0046
:1002B8007608B600B701B801B9013908F500380861
:1002C800F4003708F3003608F20001300A128A11E8
:1002D800FB260A128A11750883120313B1007408E9
:1002E800B0007308AF007208AE000A128A15062023
:1002F8000A128A11031881298229B92976088312DA
:100308000313B600B701B801B9013908F500380878
:10031800F4003708F3003608F20001300A128A1197
:10032800FB260A128A11750883120313AD0074089C
:10033800AC007308AB007208AA004230B1009730D5
:10034800B0006630AF006630AE000A128A1506208B
:100358000A128A110318B129B229B9292430831243
:100368000313B6003608BA00FA2E4230831203137C
:10037800AD009730AC006630AB006630AA00760856
:10038800B600B701B801B9013908F5003808F4001A
:100398003708F3003608F20001300A128A11FB26EA
:1003A8000A128A11750883120313B1007408B00089
:1003B8007308AF007208AE000A128A1506200A12E6
:1003C8008A110318E829E929202A760883120313D9
:1003D800B600B701B801B9013908F5003808F400CA
:1003E8003708F3003608F20001300A128A11FB269A
:1003F8000A128A11750883120313AD007408AC0041
:100408007308AB007208AA004230B1009B30B000FC
:100418007A30AF00E130AE000A128A1506200A12BF
:100428008A110318182A192A202A2530831203133F
:10043800B6003608BA00FA2E423083120313AD0014
:100448009B30AC007A30AB00E130AA007608B600E9
:10045800B701B801B9013908F5003808F4003708C0
:10046800F3003608F20001300A128A11FB260A123C
:100478008A11750883120313B1007408B000730859
:10048800AF007208AE000A128A1506200A128A11F5
:1004980003184F2A502A872A760883120313B600B6
:1004A800B701B801B9013908F5003808F400370870
:1004B800F3003608F20001300A128A11FB260A12EC
:1004C8008A11750883120313AD007408AC00730811
:1004D800AB007208AA004230B1009F30B0009430DF
:1004E800AF007B30AE000A128A1506200A128A1164
:1004F80003187F2A802A872A263083120313B6001E
:100508003608BA00FA2E423083120313AD009F302A
:10051800AC009430AB007B30AA007608B600B70177
:10052800B801B9013908F5003808F4003708F300B4
:100538003608F20001300A128A11FB260A128A11C3
:10054800750883120313B1007408B0007308AF0074
:100558007208AE000A128A1506200A128A110318B8
:10056800B62AB72AEE2A760883120313B600B70113
:10057800B801B9013908F5003808F4003708F30064
:100588003608F20001300A128A11FB260A128A1173
:10059800750883120313AD007408AC007308AB0030
:1005A8007208AA004230B100A330B000AE30AF00EC
:1005B8001430AE000A128A1506200A128A1103188E
:1005C800E62AE72AEE2A273083120313B6003608F4
:1005D800BA00FA2E423083120313AD00A330AC00E8
:1005E800AE30AB001430AA007608B600B701B801E7
:1005F800B9013908F5003808F4003708F30036085F
:10060800F20001300A128A11FB260A128A117508B3
:1006180083120313B1007408B0007308AF007208A6
:10062800AE000A128A1506200A128A1103181D2B19
:100638001E2B552B760883120313B600B701B80199
:10064800B9013908F5003808F4003708F30036080E
:10065800F20001300A128A11FB260A128A11750863
:1006680083120313AD007408AC007308AB00720862
:10067800AA004230B100A730B000C230AF008F30BE
:10068800AE000A128A1506200A128A1103184D2B89
:100698004E2B552B283083120313B6003608BA00A8
:1006A800FA2E423083120313AD00A730AC00C230DB
:1006B800AB008F30AA007608B600B701B801B901BF
:1006C8003908F5003808F4003708F3003608F20056
:1006D80001300A128A11FB260A128A117508831240
:1006E8000313B1007408B0007308AF007208AE00BD
:1006F8000A128A1506200A128A110318842B852BE0
:10070800BC2B760883120313B600B701B801B901F0
:100718003908F5003808F4003708F3003608F20005
:1007280001300A128A11FB260A128A1175088312EF
:100738000313AD007408AC007308AB007208AA007C
:100748004230B100AB30B000DC30AF002930AE0031
:100758000A128A1506200A128A110318B42BB52B1F
:10076800BC2B293083120313B6003608BA00FA2EC0
:10077800423083120313AD00AF30AC00F030AB0051
:10078800A430AA007608B600B701B801B901390843
:10079800F5003808F4003708F3003608F200013095
:1007A8000A128A11FB260A128A117508831203138A
:1007B800B1007408B0007308AF007208AE000A12E6
:1007C8008A1506200A128A110318EB2BEC2B232C0E
:1007D800760883120313B600B701B801B9013908C6
:1007E800F5003808F4003708F3003608F200013045
:1007F8000A128A11FB260A128A117508831203133A
:10080800AD007408AC007308AB007208AA0042304F
:10081800B100B430B0000A30AF003D30AE000A126B
:100828008A1506200A128A1103181B2C1C2C232C4B
:100838002A3083120313B6003608BA00FA2E423063
:1008480083120313AD00B430AC000A30AB003D3066
:10085800AA007608B600B701B801B9013908F50051
:100868003808F4003708F3003608F20001300A129D
:100878008A11FB260A128A11750883120313B10024
:100888007408B0007308AF007208AE000A128A1527
:1008980006200A128A110318522C532C8A2C760827
:1008A80083120313B600B701B801B9013908F5007E
:1008B8003808F4003708F3003608F20001300A124D
:1008C8008A11FB260A128A11750883120313AD00D8
:1008D8007408AC007308AB007208AA004230B1007B
:1008E800B830B0002330AF00D730AE000A128A15F6
:1008F80006200A128A110318822C832C8A2C2B308A
:1009080083120313B6003608BA00FA2E4230831257
:100918000313AD00B830AC002330AB00D730AA00C9
:100928007608B600B701B801B9013908F5003808EA
:10093800F4003708F3003608F20001300A128A1171
:10094800FB260A128A11750883120313B100740872
:10095800B0007308AF007208AE000A128A150620AC
:100968000A128A110318B92CBA2CF12C76088312B2
:100978000313B600B701B801B9013908F500380802
:10098800F4003708F3003608F20001300A128A1121
:10099800FB260A128A11750883120313AD00740826
:1009A800AC007308AB007208AA004230B100BC303A
:1009B800B0003830AF005230AE000A128A15062057
:1009C8000A128A110318E92CEA2CF12C2C30831214
:1009D8000313B6003608BA00FA2E42308312031306
:1009E800AD00BC30AC003830AB005230AA007608FD
:1009F800B600B701B801B9013908F5003808F400A4
:100A08003708F3003608F20001300A128A11FB2673
:100A18000A128A11750883120313B1007408B00012
:100A28007308AF007208AE000A128A1506200A126F
:100A38008A110318202D212D582D760883120313AF
:100A4800B600B701B801B9013908F5003808F40053
:100A58003708F3003608F20001300A128A11FB2623
:100A68000A128A11750883120313AD007408AC00CA
:100A78007308AB007208AA004230B100C030B00061
:100A88005130AF00EC30AE000A128A1506200A1267
:100A98008A110318502D512D582D2D308312031310
:100AA800B6003608BA00FA2E423083120313AD009E
:100AB800C030AC005130AB00EC30AA007608B6006C
:100AC800B701B801B9013908F5003808F40037084A
:100AD800F3003608F20001300A128A11FB260A12C6
:100AE8008A11750883120313B1007408B0007308E3
:100AF800AF007208AE000A128A1506200A128A117F
:100B08000318872D882DBF2D760883120313B6008E
:100B1800B701B801B9013908F5003808F4003708F9
:100B2800F3003608F20001300A128A11FB260A1275
:100B38008A11750883120313AD007408AC0073089A
:100B4800AB007208AA004230B100C430B000663071
:100B5800AF006630AE000A128A1506200A128A1102
:100B68000318B72DB82DBF2D2E3083120313B600EE
:100B78003608BA00FA2E423083120313AD00C4308F
:100B8800AC006630AB006630AA007608B600B70144
:100B9800B801B9013908F5003808F4003708F3003E
:100BA8003608F20001300A128A11FB260A128A114D
:100BB800750883120313B1007408B0007308AF00FE
:100BC8007208AE000A128A1506200A128A11031842
:100BD800EE2DEF2D262E760883120313B600B701EB
:100BE800B801B9013908F5003808F4003708F300EE
:100BF8003608F20001300A128A11FB260A128A11FD
:100C0800750883120313AD007408AC007308AB00B9
:100C18007208AA004230B100C830B0008030AF007E
:100C28000030AE000A128A1506200A128A1103182B
:100C38001E2E1F2E262E2F3083120313B6003608C1
:100C4800BA00FA2E423083120313AD00C830AC004C
:100C58008030AB000030AA007608B600B701B801B2
:100C6800B9013908F5003808F4003708F3003608E8
:100C7800F20001300A128A11FB260A128A1175083D
:100C880083120313B1007408B0007308AF00720830
:100C9800AE000A128A1506200A128A110318552E68
:100CA800562E8D2E760883120313B600B701B801AD
:100CB800B9013908F5003808F4003708F300360898
:100CC800F20001300A128A11FB260A128A117508ED
:100CD80083120313AD007408AC007308AB007208EC
:100CE800AA004230B100CC30B0009930AF009A3041
:100CF800AE000A128A1506200A128A110318852ED8
:100D0800862E8D2E303083120313B6003608BA00B3
:100D1800FA2E423083120313AD00CC30AC00993068
:100D2800AB009A30AA007608B600B701B801B9013D
:100D38003908F5003808F4003708F3003608F200DF
:100D480001300A128A11FB260A128A1175088312C9
:100D58000313B1007408B0007308AF007208AE0046
:100D68000A128A1506200A128A110318BC2EBD2EF3
:100D7800F42E760883120313B600B701B801B9013F
:100D88003908F5003808F4003708F3003608F2008F
:100D980001300A128A11FB260A128A117508831279
:100DA8000313AD007408AC007308AB007208AA0006
:100DB8004230B100D130B000E130AF004830AE0071
:100DC8000A128A1506200A128A110318EC2EED2E33
:100DD800F42E313083120313B6003608BA00FA2E07
:100DE800323083120313B6003608BA0008008312A3
:100DF8000313A40024080319022F032F172FF51F2C
:100E0800062F072F172F7209A6007309A700740968
:100E1800A8007509A900A60A0319A70A0319A80AB0
:100E28000319A90A1F2F7508A9007408A8007308D8
:100E3800A7007208A6007508740473047204031DE1
:100E4800262F272F302F0030F5000030F400003017
:100E5800F3000030F200B62F9630A0002008A5005D
:100E6800422F0130A0002008A50701300310A90C6B
:100E7800A80CA70CA60CFF3E031D3A2FFE3029052F
:100E8800031D472F482F352F642F0130A00020085D
:100E9800A5070130A607003003180130A707003066
:100EA80003180130A807003003180130A9070130E2
:100EB8000310A90CA80CA70CA60CFF3E031D5C2F61
:100EC800FF302905031D692F6A2F492F762F01301E
:100ED800A5020130A0000310A60DA70DA80DA90DAD
:100EE800A00B6F2FA81B792F7A2F802F0230250295
:100EF80003187F2F802F6B2F2518832F842F8C2F7B
:100F0800FF30A605FF30A7057F30A805FF30A905EB
:100F18000310A50C2508A000A101A201A301183007
:100F28000310A00DA10DA20DA30DFF3E031D942FCC
:100F38002008A6042108A7042208A8042308A90455
:100F480024080319A82FA92FAE2FF51FAC2FAD2FFA
:100F5800AE2FA9172908F5002808F4002708F30080
:100F68002608F2000800F400D72F831603130F0891
:100F78008F3940388F000F14ED2F831603130F0895
:100F88008F3950388F000F14ED2F831603130F0875
:100F98008F3960388F000F14ED2F703083160313CC
:100FA8008F040F14ED2F7408F200F3017308003A50
:100FB8000319DF2FED2F7208013A0319B92F033AED
:100FC8000319C12F063A0319C92F0C3A0319D12F57
:100FD800ED2F0800831603139F171F129F123F302F
:0E0FE800831203139F05C3309F051F140800DA
:10100C000030831203132A05B20000302B05B30005
:10101C0080302C05B4007F302D05B5003508340424
:10102C0033043204031D1B281C2824280030AD0077
:10103C000030AC000030AB000030AA0000302E05B0
:10104C00B20000302F05B30080303005B4007F3083
:10105C003105B5003508340433043204031D372838
:10106C00382840280030B1000030B0000030AF000C
:10107C000030AE00AD1F4328442868280030B20071
:10108C000030B3000030B4008030B5002A08B20242
:10109C002B08031C2B0F53285428B3022C08031CB9
:1010AC002C0F59285A28B4022D08031C2D0F5F2829
:1010BC006028B5023508AD003408AC003308AB002D
:1010CC003208AA00B11F6B286C2890280030B2009F
:1010DC000030B3000030B4008030B5002E08B202EE
:1010EC002F08031C2F0F7B287C28B3023008031C0D
:1010FC00300F81288228B4023108031C310F872855
:10110C008828B5023508B1003408B0003308AF00A8
:10111C003208AE008030AD068030B10631082D02A9
:10112C00031DA22830082C02031DA2282F082B0215
:10113C00031DA2282E082A020318A528A628A828D1
:10114C000310A92803140800760883120313B600B1
:10115C00B701B801B9013908F5003808F4003708AF
:10116C00F3003608F20001300A128A11FB260A122B
:10117C008A15750883120313AD007408AC0073084C
:10118C00AB007208AA004230B1001330B0004730F7
:10119C00AF00AE30AE000A128A1506200A128A156C
:1011AC000318D928DA281329760883120313B600FA
:1011BC00B701B801B9013908F5003808F40037084F
:1011CC00F3003608F20001300A128A11FB260A12CB
:1011DC008A15750883120313AD007408AC007308EC
:1011EC00AB007208AA004230B1001B30B0007A305C
:1011FC00AF00E130AE000A128A1506200A128A15D9
:10120C00031809290A291329123083120313B60073
:10121C003608BA000A128A11FA2E423083120313CE
:10122C00AD001B30AC007A30AB00E130AA00760880
:10123C00B600B701B801B9013908F5003808F40057
:10124C003708F3003608F20001300A128A11FB2627
:10125C000A128A15750883120313B1007408B000C2
:10126C007308AF007208AE000A128A1506200A1223
:10127C008A150318422943297A2976088312031305
:10128C00B600B701B801B9013908F5003808F40007
:10129C003708F3003608F20001300A128A11FB26D7
:1012AC000A128A15750883120313AD007408AC007A
:1012BC007308AB007208AA004230B1002330B000B2
:1012CC00AE30AF001430AE000A128A1506200A1296
:1012DC008A150318722973297A2913308312031380
:1012EC00B6003608BA001029423083120313AD0041
:1012FC002330AC00AE30AB001430AA007608B60038
:10130C00B701B801B9013908F5003808F4003708FD
:10131C00F3003608F20001300A128A11FB260A1279
:10132C008A15750883120313B1007408B000730892
:10133C00AF007208AE000A128A1506200A128A152E
:10134C000318A929AC290A168A11C72E760883120C
:10135C000313B600B701B801B9013908F500380814
:10136C00F4003708F3003608F20001300A128A1133
:10137C00FB260A128A15750883120313AD00740834
:10138C00AC007308AB007208AA004230B1002B30DD
:10139C00B000D730AF000A30AE000A128A15062012
:1013AC000A128A150318DB29DC29A92914308312A7
:1013BC000313B6003608BA00102941308312031308
:1013CC00AD00F530AC008530AB001F30AA007608BC
:1013DC00B600B701B801B9013908F5003808F400B6
:1013EC003708F3003608F20001300A128A11FB2686
:1013FC000A128A15750883120313B1007408B00021
:10140C007308AF007208AE000A128A1506200A1281
:10141C008A150318122A132A4C2A760883120313EE
:10142C00B600B701B801B9013908F5003808F40065
:10143C003708F3003608F20001300A128A11FB2635
:10144C000A128A15750883120313AD007408AC00D8
:10145C007308AB007208AA004230B1000230B00031
:10146C00EB30AF008530AE000A128A1506200A1246
:10147C008A150318422A432A4C2A0F30831203136D
:10148C00B6003608BA000A128A11FA2E42308312BC
:10149C000313AD000230AC00EB30AB008530AA007A
:1014AC007608B600B701B801B9013908F50038085B
:1014BC00F4003708F3003608F20001300A128A11E2
:1014CC00FB260A128A15750883120313B1007408DF
:1014DC00B0007308AF007208AE000A128A1506201D
:1014EC000A128A1503187B2A7C2AB32A76088312DF
:1014FC000313B600B701B801B9013908F500380873
:10150C00F4003708F3003608F20001300A128A1191
:10151C00FB260A128A15750883120313AD00740892
:10152C00AC007308AB007208AA004230B1000B305B
:10153C00B0001E30AF00B830AE000A128A1506207B
:10154C000A128A150318AB2AAC2AB32A103083125C
:10155C000313B6003608BA00492A4230831203132B
:10156C00AD000B30AC002030AB00C530AA007608C3
:10157C00B600B701B801B9013908F5003808F40014
:10158C003708F3003608F20001300A128A11FB26E4
:10159C000A128A15750883120313B1007408B0007F
:1015AC007308AF007208AE000A128A1506200A12E0
:1015BC008A150318E22AE52A0A128A15AA2876083F
:1015CC0083120313B600B701B801B9013908F5004D
:1015DC003808F4003708F3003608F20001300A121C
:1015EC008A11FB260A128A15750883120313AD00A3
:1015FC007408AC007308AB007208AA004230B1004A
:10160C001330B0004730AF00AE30AE000A128A156E
:10161C0006200A128A150318142B152BE22A1130F6
:10162C0083120313B6003608BA00492A41308312DC
:10163C000313AD00C430AC006A30AB007F30AA009D
:10164C007608B600B701B801B9013908F5003808B9
:10165C00F4003708F3003608F20001300A128A1140
:10166C00FB260A128A15750883120313B10074083D
:10167C00B0007308AF007208AE000A128A1506207B
:10168C000A128A1503184B2B4C2B852B76088312C8
:10169C000313B600B701B801B9013908F5003808D1
:1016AC00F4003708F3003608F20001300A128A11F0
:1016BC00FB260A128A15750883120313AD007408F1
:1016CC00AC007308AB007208AA004130B100D430F2
:1016DC00B000C830AF00B430AE000A128A15062034
:1016EC000A128A1503187B2B7C2B852B0C3083124A
:1016FC000313B6003608BA000A128A11FA2E4130CA
:10170C0083120313AD00D430AC00C830AB00B4303E
:10171C00AA007608B600B701B801B9013908F5007E
:10172C003808F4003708F3003608F20001300A12CA
:10173C008A11FB260A128A15750883120313B1004D
:10174C007408B0007308AF007208AE000A128A1554
:10175C0006200A128A150318B42BB52BEC2B76082D
:10176C0083120313B600B701B801B9013908F500AB
:10177C003808F4003708F3003608F20001300A127A
:10178C008A11FB260A128A15750883120313AD0001
:10179C007408AC007308AB007208AA004130B100A9
:1017AC00E530B0001E30AF00B830AE000A128A151A
:1017BC0006200A128A150318E42BE52BEC2B0D30AE
:1017CC0083120313B6003608BA00822B4130831201
:1017DC000313AD00E530AC001E30AB00B830AA00EE
:1017EC007608B600B701B801B9013908F500380818
:1017FC00F4003708F3003608F20001300A128A119F
:10180C00FB260A128A15750883120313B10074089B
:10181C00B0007308AF007208AE000A128A150620D9
:10182C000A128A1503181B2C1E2C0A128A15E3297E
:10183C00760883120313B600B701B801B901390851
:10184C00F5003808F4003708F3003608F2000130D0
:10185C000A128A11FB260A128A15750883120313C1
:10186C00AD007408AC007308AB007208AA004130DC
:10187C00B100F530B0008530AF001F30AE000A1259
:10188C008A1506200A128A1503184D2C4E2C1B2C77
:10189C000E3083120313B6003608BA00822B413087
:1018AC0083120313AD009330AC004F30AB00DF302C
:1018BC00AA007608B600B701B801B9013908F500DD
:1018CC003808F4003708F3003608F20001300A1229
:1018DC008A11FB260A128A15750883120313B100AC
:1018EC007408B0007308AF007208AE000A128A15B3
:1018FC0006200A128A150318842C852CBE2C760817
:10190C0083120313B600B701B801B9013908F50009
:10191C003808F4003708F3003608F20001300A12D8
:10192C008A11FB260A128A15750883120313AD005F
:10193C007408AC007308AB007208AA004130B10007
:10194C00A330B000AE30AF001430AE000A128A15CE
:10195C0006200A128A150318B42CB52CBE2C09309B
:10196C0083120313B6003608BA000A128A11FA2E33
:10197C00413083120313AD00A330AC00AE30AB008A
:10198C001430AA007608B600B701B801B9013908BD
:10199C00F5003808F4003708F3003608F20001307F
:1019AC000A128A11FB260A128A1575088312031370
:1019BC00B1007408B0007308AF007208AE000A12D0
:1019CC008A1506200A128A150318ED2CEE2C252DEB
:1019DC00760883120313B600B701B801B9013908B0
:1019EC00F5003808F4003708F3003608F20001302F
:1019FC000A128A11FB260A128A1575088312031320
:101A0C00AD007408AC007308AB007208AA0041303A
:101A1C00B100B430B0000C30AF004A30AE000A1246
:101A2C008A1506200A128A1503181D2D1E2D252D28
:101A3C000A3083120313B6003608BA00BB2C4130AF
:101A4C0083120313AD00B430AC000C30AB004A3041
:101A5C00AA007608B600B701B801B9013908F5003B
:101A6C003808F4003708F3003608F20001300A1287
:101A7C008A11FB260A128A15750883120313B1000A
:101A8C007408B0007308AF007208AE000A128A1511
:101A9C0006200A128A150318542D572D0A128A157E
:101AAC001C2B760883120313B600B701B801B901D9
:101ABC003908F5003808F4003708F3003608F2004E
:101ACC0001300A128A11FB260A128A157508831234
:101ADC000313AD007408AC007308AB007208AA00C5
:101AEC004130B100C430B0006A30AF007F30AE007E
:101AFC000A128A1506200A128A150318862D872DBC
:101B0C00542D0B3083120313B6003608BA00BB2CCD
:101B1C00413083120313AD004430AC006A30AB008B
:101B2C007F30AA007608B600B701B801B9013908B0
:101B3C00F5003808F4003708F3003608F2000130DD
:101B4C000A128A11FB260A128A15750883120313CE
:101B5C00B1007408B0007308AF007208AE000A122E
:101B6C008A1506200A128A150318BD2DBE2DF72DD5
:101B7C00760883120313B600B701B801B90139080E
:101B8C00F5003808F4003708F3003608F20001308D
:101B9C000A128A11FB260A128A157508831203137E
:101BAC00AD007408AC007308AB007208AA00413099
:101BBC00B1006530B0002630AF00E930AE000A123B
:101BCC008A1506200A128A150318ED2DEE2DF72D15
:101BDC00063083120313B6003608BA000A128A11B3
:101BEC00FA2E413083120313AD006530AC00263061
:101BFC00AB00E930AA007608B600B701B801B9010C
:101C0C003908F5003808F4003708F3003608F200FC
:101C1C0001300A128A11FB260A128A1575088312E2
:101C2C000313B1007408B0007308AF007208AE0063
:101C3C000A128A1506200A128A150318262E272E38
:101C4C005E2E760883120313B600B701B801B901F2
:101C5C003908F5003808F4003708F3003608F200AC
:101C6C0001300A128A11FB260A128A157508831292
:101C7C000313AD007408AC007308AB007208AA0023
:101C8C004130B1008230B000F130AF00AA30AE006C
:101C9C000A128A1506200A128A150318562E572E78
:101CAC005E2E073083120313B6003608BA00F42DEB
:101CBC00413083120313AD008230AC00F130AB0025
:101CCC00AA30AA007608B600B701B801B9013908E4
:101CDC00F5003808F4003708F3003608F20001303C
:101CEC000A128A11FB260A128A157508831203132D
:101CFC00B1007408B0007308AF007208AE000A128D
:101D0C008A1506200A128A1503188D2E902E0A1297
:101D1C008A15552C760883120313B600B701B80147
:101D2C00B9013908F5003808F4003708F300360813
:101D3C00F20001300A128A11FB260A128A15750864
:101D4C0083120313AD007408AC007308AB00720867
:101D5C00AA004130B1009330B0004F30AF00DF30FB
:101D6C00AE000A128A1506200A128A150318BF2E15
:101D7C00C02E8D2E083083120313B6003608BA001D
:101D8C00F42D403083120313AD00C430AC006A3024
:101D9C00AB007F30AA007608B600B701B801B901D4
:101DAC003908F5003808F4003708F3003608F2005B
:101DBC0001300A128A11FB260A128A157508831241
:101DCC000313B1007408B0007308AF007208AE00C2
:101DDC000A128A1506200A128A150318F62EF72EF7
:101DEC00302F760883120313B600B701B801B9017E
:101DFC003908F5003808F4003708F3003608F2000B
:101E0C0001300A128A11FB260A128A1575088312F0
:101E1C000313AD007408AC007308AB007208AA0081
:101E2C004130B1000230B000F130AF00AA30AE004A
:101E3C000A128A1506200A128A150318262F272F34
:101E4C00302F033083120313B6003608BA000A127F
:101E5C008A11FA2E413083120313AD000230AC000C
:101E6C00F130AB00AA30AA007608B600B701B80171
:101E7C00B9013908F5003808F4003708F3003608C2
:101E8C00F20001300A128A11FB260A128A15750813
:101E9C0083120313B1007408B0007308AF0072080A
:101EAC00AE000A128A1506200A128A1503185F2F33
:101EBC00602F972F760883120313B600B701B80171
:101ECC00B9013908F5003808F4003708F300360872
:101EDC00F20001300A128A11FB260A128A157508C3
:101EEC0083120313AD007408AC007308AB007208C6
:101EFC00AA004130B1002330B000AE30AF00143036
:101F0C00AE000A128A1506200A128A1503188F2FA2
:101F1C00902F972F043083120313B6003608BA00A3
:101F2C002D2F413083120313AD002330AC00AE30A3
:101F3C00AB001430AA007608B600B701B801B9019D
:101F4C003908F5003808F4003708F3003608F200B9
:101F5C0001300A128A11FB260A128A15750883129F
:101F6C000313B1007408B0007308AF007208AE0020
:101F7C000A128A1506200A128A150318C62FC92FB1
:101F8C000A128A158E2D760883120313B600B70138
:101F9C00B801B9013908F5003808F4003708F30026
:101FAC003608F20001300A128A11FB260A128A1531
:101FBC00750883120313AD007408AC007308AB00F2
:101FCC007208AA004130B1004430B0006A30AF0052
:101FDC007F30AE000A128A1506200A128A150318E1
:101FEC00F82FF92FC62F053083120313B6003608CD
:041FFC00BA002D2FCB
:1022C80071088A00700E8300FE0E7E0E09008312CC
:1022D80003139F18702971298229BB0183160313E0
:1022E8001E08F2007208F600C730F2007B29F20BD4
:1022F8007A297E297F29831203139F1408000A165E
:102308008A119F210A168A110A168A116B210A1648
:102318008A110A168A11BF210A168A110A168A1109
:1023280013220A168A11831203133A088700882990
:102338000A128A110C2883160317880189010814C8
:1023480083160313051486140615861509108910BB
:1023580087018801831203138601880189010430EB
:102368000A128A11B7270A168A110A128A11EE2749
:102378000A168A11080083120313861CC429C5296A
:10238800C92908148810F901F90A8618CC29CD2919
:10239800D02908108814F901061DD329D429D82971
:1023A80008158811F801F80A0619DB29DC29DF2944
:1023B80008118815F801861DE229E329E72908167E
:1023C8008812BC01BC0A8619EA29EB29EE290812F1
:1023D8008816BC0178087907F2003C087207F300F8
:1023E8007308F700FC298701122A77088700122A48
:1023F8007708F200F3017308003A0319042AF72951
:102408007208003A0319F729013A0319F929033A1E
:102418000319F929013A0319F929F7290800760857
:102428000319172A182A4E2A760883120313B600AE
:10243800B701B801B9013908F5003808F4003708C0
:10244800F3003608F20001300A128A11FB260A1638
:102458008A11750883120313AD007408AC00730861
:10246800AB007208AA004030B1000230B000F13071
:10247800AF00AA30AE000A128A1506200A168A1181
:102488000318472A482A4E2A83120313BA010A124C
:102498008A11FA2E403083120313AD000230AC00CB
:1024A800F130AB00AA30AA007608B600B701B8012F
:1024B800B9013908F5003808F4003708F300360880
:1024C800F20001300A128A11FB260A168A117508D1
:1024D80083120313B1007408B0007308AF007208C8
:1024E800AE000A128A1506200A168A1103187D2AD8
:1024F8007E2AB32A760883120313B600B701B801FF
:10250800B9013908F5003808F4003708F30036082F
:10251800F20001300A128A11FB260A168A11750880
:1025280083120313AD007408AC007308AB00720883
:10253800AA004030B1008230B000F130AF00AA30BC
:10254800AE000A128A1506200A168A110318AD2A47
:10255800AE2AB32A83120313BA01BA0A4B2A4030AF
:1025680083120313AD008230AC00F130AB00AA3007
:10257800AA007608B600B701B801B9013908F50014
:102588003808F4003708F3003608F20001300A1260
:102598008A11FB260A168A11750883120313B100E3
:1025A8007408B0007308AF007208AE000A128A15EA
:1025B80006200A168A110318E22AE52A0A128A1541
:1025C800C72E760883120313B600B701B801B90104
:1025D8003908F5003808F4003708F3003608F20027
:1025E80001300A128A11FB260A168A11750883120D
:1025F8000313AD007408AC007308AB007208AA009E
:102608004030B100C430B0006A30AF007F30AE0057
:102618000A128A1506200A168A110318142B152B7C
:10262800E22A023083120313B6003608BA004B2A96
:10263800423083120313AD007530AC008530AB0017
:102648001F30AA007608B600B701B801B9013908E9
:10265800F5003808F4003708F3003608F2000130B6
:102668000A128A11FB260A168A11750883120313A7
:10267800B1007408B0007308AF007208AE000A1207
:102688008A1506200A168A1103184B2B4C2B852B0A
:10269800760883120313B600B701B801B9013908E7
:1026A800F5003808F4003708F3003608F200013066
:1026B8000A128A11FB260A168A1175088312031357
:1026C800AD007408AC007308AB007208AA00423071
:1026D800B1007D30B000AE30AF001430AE000A1249
:1026E8008A1506200A168A1103187B2B7C2B852B4A
:1026F8001E3083120313B6003608BA000A128A1174
:10270800FA2E423083120313AD007D30AC00AE3098
:10271800AB001430AA007608B600B701B801B901B9
:102728003908F5003808F4003708F3003608F200D5
:1027380001300A128A11FB260A168A1175088312BB
:102748000313B1007408B0007308AF007208AE003C
:102758000A128A1506200A168A110318B42BB52BFB
:10276800EC2B760883120313B600B701B801B90140
:102778003908F5003808F4003708F3003608F20085
:1027880001300A128A11FB260A168A11750883126B
:102798000313AD007408AC007308AB007208AA00FC
:1027A8004230B1008230B000F030AF00A430AE004B
:1027B8000A128A1506200A168A110318E42BE52B3B
:1027C800EC2B1F3083120313B6003608BA00822B95
:1027D800423083120313AD008230AC00F030AB00FE
:1027E800A430AA007608B600B701B801B9013908C3
:1027F800F5003808F4003708F3003608F200013015
:102808000A128A11FB260A168A1175088312031305
:10281800B1007408B0007308AF007208AE000A1265
:102828008A1506200A168A1103181B2C1E2C0A1258
:102838008A111D28760883120313B600B701B80160
:10284800B9013908F5003808F4003708F3003608EC
:10285800F20001300A128A11FB260A168A1175083D
:1028680083120313AD007408AC007308AB00720840
:10287800AA004230B1008730B0000530AF001F30E9
:10288800AE000A128A1506200A168A1103184D2C62
:102898004E2C1B2C203083120313B6003608BA00C6
:1028A800822B423083120313AD005C30AC00F5304C
:1028B800AB00C330AA007608B600B701B801B90169
:1028C8003908F5003808F4003708F3003608F20034
:1028D80001300A128A11FB260A168A11750883121A
:1028E8000313B1007408B0007308AF007208AE009B
:1028F8000A128A1506200A168A110318842C852CB8
:10290800BE2C760883120313B600B701B801B901CB
:102918003908F5003808F4003708F3003608F200E3
:1029280001300A128A11FB260A168A1175088312C9
:102938000313AD007408AC007308AB007208AA005A
:102948004230B1006530B0001E30AF00B830AE0084
:102958000A128A1506200A168A110318B42CB52CF7
:10296800BE2C1B3083120313B6003608BA000A12B5
:102978008A11FA2E423083120313AD006530AC0081
:102988001E30AB00B830AA007608B600B701B8010F
:10299800B9013908F5003808F4003708F30036089B
:1029A800F20001300A128A11FB260A168A117508EC
:1029B80083120313B1007408B0007308AF007208E3
:1029C800AE000A128A1506200A168A110318ED2C81
:1029D800EE2C252D760883120313B600B701B80133
:1029E800B9013908F5003808F4003708F30036084B
:1029F800F20001300A128A11FB260A168A1175089C
:102A080083120313AD007408AC007308AB0072089E
:102A1800AA004230B1006D30B0008530AF001F30E1
:102A2800AE000A128A1506200A168A1103181D2DEF
:102A38001E2D252D1C3083120313B6003608BA004C
:102A4800BB2C423083120313AD006D30AC00513003
:102A5800AB00EC30AA007608B600B701B801B9019E
:102A68003908F5003808F4003708F3003608F20092
:102A780001300A128A11FB260A168A117508831278
:102A88000313B1007408B0007308AF007208AE00F9
:102A98000A128A1506200A168A110318542D572D72
:102AA8000A168A111C2B760883120313B600B70185
:102AB800B801B9013908F5003808F4003708F300FF
:102AC8003608F20001300A128A11FB260A168A110A
:102AD800750883120313AD007408AC007308AB00CB
:102AE8007208AA004230B1007530B0008530AF00DE
:102AF8001F30AE000A128A1506200A168A1103181A
:102B0800862D872D542D1D3083120313B6003608E9
:102B1800BA00BB2C423083120313AD004430AC0022
:102B28006630AB006630AA007608B600B701B80177
:102B3800B9013908F5003808F4003708F3003608F9
:102B4800F20001300A128A11FB260A168A1175084A
:102B580083120313B1007408B0007308AF00720841
:102B6800AE000A128A1506200A168A110318BD2D0E
:102B7800BE2DF72D760883120313B600B701B801EE
:102B8800B9013908F5003808F4003708F3003608A9
:102B9800F20001300A128A11FB260A168A117508FA
:102BA80083120313AD007408AC007308AB007208FD
:102BB800AA004230B1004C30B0009930AF009A30D2
:102BC800AE000A128A1506200A168A110318ED2D7E
:102BD800EE2DF72D183083120313B6003608BA000D
:102BE8000A128A11FA2E423083120313AD004C30B8
:102BF800AC009930AB009A30AA007608B600B7014D
:102C0800B801B9013908F5003808F4003708F300AD
:102C18003608F20001300A128A11FB260A168A11B8
:102C2800750883120313B1007408B0007308AF006D
:102C38007208AE000A128A1506200A168A110318AD
:102C4800262E272E5E2E760883120313B600B701B0
:102C5800B801B9013908F5003808F4003708F3005D
:102C68003608F20001300A128A11FB260A168A1168
:102C7800750883120313AD007408AC007308AB0029
:102C88007208AA004230B1005430B000C230AF0020
:102C98008F30AE000A128A1506200A168A11031808
:102CA800562E572E5E2E193083120313B60036089F
:102CB800BA00F42D423083120313AD005430AC0037
:102CC800C230AB008F30AA007608B600B701B80151
:102CD800B9013908F5003808F4003708F300360858
:102CE800F20001300A128A11FB260A168A117508A9
:102CF80083120313B1007408B0007308AF007208A0
:102D0800AE000A128A1506200A168A1103188D2E9B
:102D1800902E0A168A11552C760883120313B600D2
:102D2800B701B801B9013908F5003808F4003708C7
:102D3800F3003608F20001300A128A11FB260A163F
:102D48008A11750883120313AD007408AC00730868
:102D5800AB007208AA004230B1005C30B000F53018
:102D6800AF00C330AE000A128A1506200A168A116F
:102D78000318BF2EC02E8D2E1A3083120313B600EF
:102D88003608BA00F42D423083120313AD002B30FD
:102D9800AC00D730AB000A30AA007608B600B701FD
:102DA800B801B9013908F5003808F4003708F3000C
:102DB8003608F20001300A128A11FB260A168A1117
:102DC800750883120313B1007408B0007308AF00CC
:102DD8007208AE000A128A1506200A168A1103180C
:102DE800F62EF72E302F760883120313B600B7019C
:102DF800B801B9013908F5003808F4003708F300BC
:102E08003608F20001300A128A11FB260A168A11C6
:102E1800750883120313AD007408AC007308AB0087
:102E28007208AA004230B1003430B0000A30AF0056
:102E38003D30AE000A128A1506200A168A110318B8
:102E4800262F272F302F153083120313B60036088C
:102E5800BA000A128A11FA2E423083120313AD0007
:102E68003430AC000A30AB003D30AA007608B6001A
:102E7800B701B801B9013908F5003808F400370876
:102E8800F3003608F20001300A128A11FB260A16EE
:102E98008A11750883120313B1007408B00073080F
:102EA800AF007208AE000A128A1506200A168A11A7
:102EB80003185F2F602F972F760883120313B6002D
:102EC800B701B801B9013908F5003808F400370826
:102ED800F3003608F20001300A128A11FB260A169E
:102EE8008A11750883120313AD007408AC007308C7
:102EF800AB007208AA004230B1003C30B000333059
:102F0800AF003330AE000A128A1506200A168A115D
:102F180003188F2F902F972F163083120313B600A4
:102F28003608BA002D2F423083120313AD003C300F
:102F3800AC003330AB003330AA007608B600B701D6
:102F4800B801B9013908F5003808F4003708F3006A
:102F58003608F20001300A128A11FB260A168A1175
:102F6800750883120313B1007408B0007308AF002A
:102F78007208AE000A128A1506200A168A1103186A
:102F8800C62FC92F0A168A118E2D760883120313AD
:102F9800B600B701B801B9013908F5003808F400DE
:102FA8003708F3003608F20001300A128A11FB26AE
:102FB8000A168A11750883120313AD007408AC0051
:102FC8007308AB007208AA004230B1004430B00068
:102FD8006630AF006630AE000A128A1506200A165F
:102FE8008A110318F82FF92FC62F173083120313ED
:082FF800B6003608BA002D2FC7
:04400E00D420FF3F7C
:00000001FF
