:060000000A128A110C280F
:10000800FE00030EF0000A08F1000A128A114B28BC
:100018000A128A110F28F50183010A128A11782819
:10002800F4003428831603130F088F3940388F00E3
:100038000F144A28831603130F088F3950388F007E
:100048000F144A28831603130F088F3960388F005E
:100058000F144A287030831603138F040F144A288C
:100068007408F200F3017308003A03193C284A287F
:100078007208013A03191628033A03191E28063A8A
:10008800031926280C3A03192E284A2808000B1CA5
:100098004E284F285B28FE30831203130606031DE3
:1000A800562857285A280910F501F50A0B10710827
:1000B8008A00700E8300FE0E7E0E09008316031759
:1000C8008801890183160313061409108312031388
:1000D8008601890104300A128A1114200A128A1131
:1000E8000B178B150B1008000A128A1162200A12CE
:1000F8008A118312031309147D280A128A110C2805
:04400E00D420FF3F7C
:00000001FF
