:060000000A128A110C280F
:10000800FE00030EF0000A08F1000A128A117D288A
:100018000A128A110F28F50183010A128A116F2822
:10002800F4003428831603130F088F3940388F00E3
:100038000F144A28831603130F088F3950388F007E
:100048000F144A28831603130F088F3960388F005E
:100058000F144A287030831603138F040F144A288C
:100068007408F200F3017308003A03193C284A287F
:100078007208013A03191628033A03191E28063A8A
:10008800031926280C3A03192E284A280800831633
:1000980003178801890183160313061409108910B0
:1000A8008312031386018701890104300A128A1119
:1000B80014200A128A11080083120313061C6528EB
:1000C800662868280914891006186B286C286E2879
:1000D8000910891408000A128A114B200A128A1181
:1000E8000A128A1160200A128A1174280A128A11C7
:1000F8000C2871088A00700E8300FE0E7E0E09001F
:04400E00D420FF3F7C
:00000001FF
