:060000000A128A110C280F
:10000800FE00030EF0000A08F1000A128A116728A0
:100018000A128A110F28F50183010A128A117E2813
:10002800F4003428831603130F088F3940388F00E3
:100038000F144A28831603130F088F3950388F007E
:100048000F144A28831603130F088F3960388F005E
:100058000F144A287030831603138F040F144A288C
:100068007408F200F3017308003A03193C284A287F
:100078007208013A03191628033A03191E28063A8A
:10008800031926280C3A03192E284A280800831633
:1000980003178801890183160313061409108312B4
:1000A80003138601890104300A128A1114200A12E6
:1000B8008A1183160313811315148B170B178B15CD
:1000C8000B10161408000B1C6A286B287728FE30C2
:1000D800831203130606031D722873287628091055
:1000E800F501F50A0B1071088A00700E8300FE0EE8
:1000F8007E0E09000A128A114B200A128A118312F5
:0C0108000313091483280A128A110C2822
:04400E00D420FF3F7C
:00000001FF
