:060000000A128A110C280F
:10000800FE00030EF0000A08F1000A128A1179288E
:100018000A128A110F28F50183010A128A115F2832
:10002800F4003428831603130F088F3940388F00E3
:100038000F144A28831603130F088F3950388F007E
:100048000F144A28831603130F088F3960388F005E
:100058000F144A287030831603138F040F144A288C
:100068007408F200F3017308003A03193C284A287F
:100078007208013A03191628033A03191E28063A8A
:10008800031926280C3A03192E284A280800831633
:1000980003178801890183160313061409108910B0
:1000A800831203138601890104300A128A1114206D
:1000B8000A128A1108000A128A114B200A128A11A0
:1000C8000A128A116D200A128A1164280A128A11EA
:1000D8000C2883120313061C722873287628091427
:1000E8008910782809108914080071088A00700E90
:0800F8008300FE0E7E0E0900DC
:04400E00D420FF3F7C
:00000001FF
