:060000000A128A110C280F
:10000800FE00030EF0000A08F1000A128A11162FEA
:100018000A128A110F28F801F901FA018312031351
:10002800C201C301C401C501C601C701C801C90194
:10003800CA01CB01CC01CD01CE01CF0183010A1247
:100048008A112E2E831203132D088039B20032082C
:10005800BA002D08B2003207B3003308BC00AC1F49
:100068003628372838283C143C0803193C283D28F2
:100078004D283C0A031D412842284A280030AD007B
:100088000030AC000030AB000030AA00AC17AD0166
:1000980055280030AD000030AC000030AB00003017
:1000A800AA0031088039B2003208BB003B083A0682
:1000B80003195F28602861283A173108B20032070F
:1000C800B3003308BB00B01F6A286B286C283B14A8
:1000D8003B0803197028712881283B0A031D7528DD
:1000E80076287E280030B1000030B0000030AF0024
:1000F8000030AE00B017B10189280030B1000030DF
:10010800B0000030AF000030AE003C083B020318DE
:100118008E288F28D3283A1F922893289728803032
:10012800B2003208BA063C08B2003208BD003B08EB
:10013800B2003208BC003D08B2003208BB002A08F1
:10014800B2003208BD002E08B2003208AA003D08ED
:10015800B2003208AE002B08B2003208BD002F08EA
:10016800B2003208AB003D08B2003208AF002C08DC
:10017800B2003208BD003008B2003208AC003D08B9
:10018800B2003208B0002D08B2003208BD003108B4
:10019800B2003208AD003D08B2003208B100BD011E
:1001A8003B08B200B3013308B5003C083202B40082
:1001B800031CB5033508803AFF0080307F02031D19
:1001C800E7281A303402031CEA28EB28282983126E
:1001D80003132D082C042B042A04031DF428F628E5
:1001E8000130F7280030B2003208BD000030AD0001
:1001F8000030AC000030AB000030AA003B08B20071
:100208003208BC0030293D1C0A290B2914293D0855
:10021800B2000310320C0138B3003308BD001629B0
:100228000310BD0C2A1C19291A291B29BD170130D6
:10023800B2002D0DAD0CAC0CAB0CAA0CB20B1D29E9
:100248000130B2003208BC07831203133B083C029A
:10025800031C2F29302907293A1B332934297F29E0
:100268003C08031D3829392942290030AD000030E7
:10027800AC000030AB000030AA00AD2A2E08AA0757
:100288002F0803110318013E03194B29AB07300847
:1002980003110318013E03195229AC073108031151
:1002A8000318013E03195929AD072D1C5C295D2946
:1002B800332A3D1C602961296A293D08B2000310D0
:1002C800320C0138B3003308BD006C290310BD0C93
:1002D8002A1C6F2970297129BD170130B2002D0D14
:1002E800AD0CAC0CAB0CAA0CB20B73290130B200EC
:1002F8003208BC07332A2D08803AFF003108803ABB
:100308007F02031D912930082C02031D91292F0813
:100318002B02031D91292E082A02031894299529D6
:10032800ED29FF30B200FF30B300FF30B400FF30DA
:10033800B5002E08B6002F08B7003008B8003108FD
:10034800B9002A08B6022B08031C2B0FAC29AD29CB
:10035800B7022C08031C2C0FB229B329B8022D08A8
:10036800031C2D0FB829B929B9023608B207370876
:100378000318370FC029C129B30738080318380FE5
:10038800C629C729B40739080318390AB507350833
:10039800AD003408AC003308AB003208AA00803046
:1003A800B2003208BA06BD09BD0A3D08031DDD29A1
:1003B800DE29FB290130AA07003003180130AB07FA
:1003C800003003180130AC07003003180130AD07C6
:1003D800FB292E08AA022F08031C2F0FAB02300896
:1003E800031C300FAC023108031C310FAD022D087D
:1003F8002C042B042A04031D022A032A2F2A3D0851
:10040800031D072A082A2F2A0030AD000030AC004F
:100418000030AB000030AA00AD2A0130B200031052
:10042800AA0DAB0DAC0DAD0DB20B132ABD1F1D2AC5
:100438001E2A1F2A2A143D1C222A232A262A03148C
:10044800BD0D282A0310BD0D3C0803192C2A2D2A9E
:100458002F2A0130BC02AC1F322A332A112ABB01D1
:10046800BD1F372A382A462A3D087F3903193D2AF5
:100478003E2A412ABB01BB0A462A2A1C442A452A8D
:10048800462A3E2A3B0803194A2A4B2A7F2A01306A
:10049800AA07003003180130AB07003003180130F9
:1004A800AC07003003180130AD072D1C5C2A5D2A0B
:1004B8007F2A2A08B2002B08B3002C08B4002D08A4
:1004C800B5000130B600350DB50CB40CB30CB20C48
:1004D800B60B672A3508AD003408AC003308AB000A
:1004E8003208AA003C0A03197A2A7B2A7F2A01309B
:1004F800B2003208BC073C0A0319832A842A892AD5
:100508003C08031D882A892A972A0030AD0000304C
:10051800AC000030AB000030AA003C08031D952A4F
:10052800962A972ABA013C1C9A2A9B2A9D2AAC171C
:10053800A12A7F30B2003208AC053C08B200031093
:10054800320CB3003308AD00BA1FAB2AAC2AAD2A6F
:10055800AD1708008312031327088039F2007208C8
:10056800AC002708F2007207F3007308B300A61F57
:10057800BE2ABF2AC02A331433080319C42AC52A3D
:10058800D52A330A031DC92ACA2AD22A0030A7004D
:100598000030A6000030A5000030A400A617A7016F
:1005A800DD2A0030A7000030A6000030A50000308A
:1005B800A40023088039F2007208AC062308F20070
:1005C8007207F3007308B400A21FEB2AEC2AED2A85
:1005D800341434080319F12AF22A022B340A031DB1
:1005E800F62AF72AFF2A0030A3000030A2000030C4
:1005F800A1000030A000A217A3010A2B0030A3001D
:100608000030A2000030A1000030A000230822041E
:1006180021042004031D112B122B2B2B0030A700C3
:100628000030A6000030A5000030A4008030A604E9
:100638007F30A7042C08F2007208A7042708A3003B
:100648002608A2002508A1002408A0008A2C330847
:10065800031D2F2B302B392B0030A3000030A200B4
:100668000030A1000030A0008A2C3308F200F3010A
:100678007308F50034087202F400031CF5037408CB
:100688007F3EAD0075080318013E003EAE00270806
:10069800AB002608AA002508A9002408A8000030F5
:1006A800A7000030A6000030A5000030A4000030EC
:1006B800B2000030B1000030B0000030AF00B4012B
:1006C800AF2B34080319692B6A2B8A2B0130F200EF
:1006D8000310A80DA90DAA0DAB0DF20B6C2B013060
:1006E800F2000310A40DA50DA60DA70DF20B752B96
:1006F800B21F7F2B802B812B24140130F2000310B2
:10070800AF0DB00DB10DB20DF20B832B23082B02E8
:10071800031D982B22082A02031D982B2108290261
:10072800031D982B20082802031C9B2B9C2BAB2B0A
:1007380032172008A8022108031C210FA902220849
:10074800031C220FAA022308031C230FAB0201304B
:10075800F2007208B4071A303402031CB42BB52B0C
:10076800652B2B082A04290428040319BC2BBD2B4C
:10077800DC2B2F14DC2B0130F2000310A40DA50D87
:10078800A60DA70DF20BC12BB21FCB2BCC2BCD2B5B
:1007980024140130F2000310AF0DB00DB10DB20DED
:1007A800F20BCF2BFF30AD070318AE0AFF30AE07B0
:1007B800A61FDF2BE02BBF2BB401B21FE42BE52BC8
:1007C800012CFF302F05F200FF303005F300FF3019
:1007D8003105F4007F303205F500750874047304A0
:1007E80072040319F82BF92BFC2BB401B40A012C61
:1007F800241CFF2B002C012CF92B34080319052C81
:10080800062C372C0130A407003003180130A50747
:10081800003003180130A607003003180130A7077D
:10082800271C172C182C372C2408F2002508F30055
:100838002608F4002708F5000130F600750DF50CC0
:10084800F40CF30CF20CF60B222C7508A7007408B4
:10085800A6007308A5007208A4000130AD070318AC
:10086800AE0A0030AE072E08803AFF0080307F02C3
:10087800031D402CFF302D02031C432C442C522C0A
:10088800FF3083120313AD000030AE000030A70024
:100898000030A6000030A5000030A4008312031326
:1008A8002E08803AFF0080307F02031D5D2C013046
:1008B8002D020318602C612C6E2C83120313AD01DA
:1008C800AE010030A7000030A6000030A5000030BF
:1008D800A400AC01831203132D08F2007208B300C0
:1008E800331C772C782C7A2CA6177E2C7F30F200BC
:1008F8007208A6053308F2000310720CF30073089F
:10090800A7002C08F2007208A704222B0800831203
:100918000313A40024080319922C932CA72CF51F69
:10092800962C972CA72C7209A6007309A7007409A6
:10093800A8007509A900A60A0319A70A0319A80A95
:100948000319A90AAF2C7508A9007408A800730830
:10095800A7007208A6007508740473047204031DC6
:10096800B62CB72CC02C0030F5000030F400003055
:10097800F3000030F200462D9630A0002008A500B4
:10098800D22C0130A0002008A50701300310A90CC3
:10099800A80CA70CA60CFF3E031DCA2CFE30290587
:1009A800031DD72CD82CC52CF42C0130A00020080E
:1009B800A5070130A607003003180130A70700304B
:1009C80003180130A807003003180130A9070130C7
:1009D8000310A90CA80CA70CA60CFF3E031DEC2CB9
:1009E800FF302905031DF92CFA2CD92C062D0130CE
:1009F800A5020130A0000310A60DA70DA80DA90D92
:100A0800A00BFF2CA81B092D0A2D102D0230250242
:100A180003180F2D102DFB2C2518132D142D1C2D0C
:100A2800FF30A605FF30A7057F30A805FF30A905D0
:100A38000310A50C2508A000A101A201A3011830EC
:100A48000310A00DA10DA20DA30DFF3E031D242D23
:100A58002008A6042108A7042208A8042308A9043A
:100A680024080319382D392D3E2DF51F3C2D3D2D19
:100A78003E2DA9172908F5002808F4002708F300D7
:100A88002608F20008000310740D750D8312031375
:100A9800A0002008F7007708031D532D542D5D2D65
:100AA8000030F5000030F4000030F3000030F200B0
:100AB800C22D7208A0007308A1007408A20075086E
:100AC800A3001F300310A30CA20CA10CA00CFF3E26
:100AD800031D662D2008A4002408F600F417FF3033
:100AE800F205FF30F305FF30F4050030F5059630C8
:100AF800F702F71F802D812D9B2D7708803A973EAE
:100B08000318872D882D892D542D01300310F50CDD
:100B1800F40CF30CF20CFF3E031D8A2D0130A000EB
:100B28002008F707031D992D9A2D892DB22D203005
:100B38007702031CA02DA12DAD2D542D0130A0004E
:100B48000310F20DF30DF40DF50DA00BA42D0130DB
:100B5800F7027708031DB12DB22DA22D76080319CF
:100B6800B62DB72DC22DF209F309F409F509F20AD9
:100B78000319F30A0319F40A0319F50A0800831282
:100B880003139F18C82DC92D2D2E1E08BE00BF01A6
:100B98003E08BF00BE013E08F2003F08F3000030E7
:100BA800F31BFF30F400F50001300A128A118B2480
:100BB8000A128A11750883120313CD007408CC0039
:100BC8007308CB007208CA004D08AD004C08AC0091
:100BD8004B08AB004A08AA00831603131E088312A9
:100BE8000313BE00BF01C001C1014108F500400860
:100BF800F4003F08F3003E08F20001300A128A119F
:100C08008B240A128A11750883120313B100740821
:100C1800B0007308AF007208AE000A128A112620CD
:100C28000A128A11831203132D08C9002C08C80060
:100C38002B08C7002A08C600033083120313BF001D
:100C48009730BE00BE0B262EBF0B262E8312031331
:100C58009F1408000A128A11E2260A128A110A123F
:100C68008A11C3250A128A110A128A1173260A12D6
:100C78008A11403083120313A3000230A200F1301E
:100C8800A100AA30A0004908A7004808A600470804
:100C9800A5004608A4000A128A11AE220A128A1177
:100CA800831203132308C5002208C4002108C300C7
:100CB8002008C2004508F5004408F4004308F30082
:100CC8004208F2000A128A1147250A128A1172088C
:100CD800831203138700332E0A128A110C288312F9
:100CE8000313861C782E792E7D2E08148810FA019D
:100CF800FA0A8618802E812E842E08108814FA018C
:100D0800061D872E882E8C2E08158811F901F90AE0
:100D180006198F2E902E932E08118815F901861D1D
:100D2800962E972E9B2E08168812F801F80A861917
:100D38009E2E9F2EA22E08128816F80179087A078F
:100D4800F20078087207F3007308CE000800F40078
:100D5800CB2E831603130F088F3940388F000F14DA
:100D6800E12E831603130F088F3950388F000F14A4
:100D7800E12E831603130F088F3960388F000F1484
:100D8800E12E7030831603138F040F14E12E7408BC
:100D9800F200F3017308003A0319D32EE12E72080A
:100DA800013A0319AD2E033A0319B52E063A031971
:100DB800BD2E0C3A0319C52EE12E08008316031721
:100DC800880189010814831603130514861406156F
:100DD800861509108910870188018312031386017B
:100DE8008801890108300A128A11AB260A128A1171
:100DF8000A128A1102270A128A110800831603139D
:100E08009F171F129F123F30831203139F05C33091
:100E18009F054230F200F20B0F2F000083120313DC
:100E28001F14080071088A00700E8300FE0E7E0EE3
:020E38000900AF
:04400E00D420FF3F7C
:00000001FF
