:060000000A128A110C280F
:10000800FE00030EF5000A08F6000A128A11CB2832
:100018000A128A110F28F001F101F201F301F4012B
:1000280083010A128A11BD2883120313861C1D2816
:100038001E28222808148810F301F30A8618252898
:100048002628292808108814F301061D2C282D2895
:10005800312808158811F201F20A061934283528C2
:10006800382808118815F201861D3B283C284028AD
:1000780008168812F101F10A8619432844284728EE
:1000880008128816F10172087307F70071087707DC
:10009800F8007808F000552887016B287008870059
:1000A8006B287008F700F8017808003A03195D28F2
:1000B80050287708003A03195028013A03195228A2
:1000C800033A03195228013A031952285028080004
:1000D800F9008C28831603130F088F3940388F00D6
:1000E8000F14A228831603130F088F3950388F0076
:1000F8000F14A228831603130F088F3960388F0056
:100108000F14A2287030831603138F040F14A2282B
:100118007908F700F8017808003A03199428A2280A
:100128007708013A03196E28033A03197628063A24
:1001380003197E280C3A03198628A228080083167A
:100148000317880189018316031385018614061590
:100158008615091089108701880183120313860107
:100168008801890104300A128A116C200A128A1146
:1001780008000A128A11A3200A128A110A128A1187
:1001880018200A128A11C2280A128A110C28760825
:0C0198008A00750E8300FE0E7E0E09002A
:04400E00D420FF3F7C
:00000001FF
