:060000000A128A110E280D
:10000800FE00030EF9000408FA000A08FB000A12B1
:100018008A112C280A128A111128F001F101F20123
:10002800F301F401F50183120313A001A101A20158
:10003800A301A401A501A601A701A801A901AA017C
:10004800AB01AC01AD01AE0183010A128A11E129AD
:10005800831203138C1D3128322888281412141B8C
:10006800362837283B28941F3A283B28422813086B
:10007800F8007808AE0014139413141683160313AB
:10008800941A47284828652814194B284C286528AD
:10009800831203131308F8007808AE008C111416A5
:1000A80083160313141C59285A285428831203133F
:1000B8001308F8007808AD008530F800F80B6228BE
:1000C8008528941A682869288528141D6C286D28A5
:1000D8008528831203131308F8007808AE008316E6
:1000E8000313141070088312031393001416853039
:1000F800F800F80B7D288316031314188428852824
:100108007F28831203138C110C1E8B288C289828A7
:100118000130F8007808F4070A128A11A1200A129F
:100128008A11831203130C127B088A007A08840050
:10013800790E8300FE0E7E0E0900CB287008303E33
:10014800831203139900F3282C30831203139900A8
:10015800F3287308303E831203139900F3287208BA
:10016800303E831203139900F3287108303E83123E
:1001780003139900F3280A30831203139900F32814
:100188000D30831203139900F328F401F32874083F
:10019800F600F7017708003A0319D328F328760800
:1001A800013A0319A228033A0319A828013A0319A6
:1001B800AD28073A0319A828013A0319B328033AC6
:1001C8000319A828013A0319B9280F3A0319BF28B7
:1001D800013A0319C4281D3A0319C928F32808004D
:1001E80083120313B1001629831603130F088F39DE
:1001F80040388F000F142C29831603130F088F39EA
:1002080050388F000F142C29831603130F088F39C9
:1002180060388F000F142C297030831603138F0455
:100228000F142C293108AF00B0013008003A031927
:100238001E292C292F08013A0319F828033A031913
:100248000029063A031908290C3A031910292C2900
:10025800080083120313861C322933293729051411
:100268008510F301F30A86183A293B293E2905101F
:100278008514F301061D41294229462905158511D2
:10028800F201F20A061949294A294D29051185154D
:10029800F201861D50295129552905168512F101AB
:1002A800F10A8619582959295C2905128516F10180
:1002B80072087307AF0071082F07B0003008F0000C
:1002C8000800831603178801890183160313051094
:1002D80085100511851105128512861406158615D7
:1002E80083120313850186018801890108300A12E7
:1002F8008A11F4200A128A110A128A11CB210A12D1
:100308008A110A128A11B5210A128A1150300A126A
:100318008A1199210A128A118B170B178316031356
:100328000C16831203130C12080083120313AF0078
:100338002F08831603139300363083120313940097
:100348008030831603139400013091008715071637
:100358008B170B17831203138C11831603138C1539
:100368000800831603131812181518138316031799
:100378008711831603139A013330990083120313EC
:100388009817181318128316031398160800831663
:1003980003139F171F129F123F30831203139F05E9
:1003A800C3309F05413083120313AF00AF0BDA2926
:1003B800DD29831203131F1408000A128A1165210C
:1003C8000A128A110A128A112D210A128A11E629A3
:0603D8000A128A110E2832
:04400E00D420FF3F7C
:00000001FF
