:060000000A128A110C280F
:10000800FE00030EF1000A08F2000A128A15BE2E3D
:100018000A128A110F28F801F901FA018312031351
:10002800C001C101C201C301C401C501C601C701A4
:10003800C801C901CA01CB01CC01CD01CE018301A0
:100048000A128A1127280A128A11B4230A128A115D
:100058000A128A11E2270A128A11F701F70A0130F7
:100068000A128A1539270A128A110A128A11572583
:100078000A128A110A128A1514270A128A11F7011C
:10008800F70A02300A128A1539270A128A110A1247
:100098008A115F270A128A110A128A1514270A126E
:1000A8008A110A128A1106220A128A110A128A155C
:1000B80095260A128A115030F3000030F4000A1213
:1000C8008A15A7260A128A110030F300F4000A12D2
:1000D8008A15A7260A128A110A128A159E260A125A
:1000E8008A111A3083120313BF00F730BE00BE0B0B
:1000F8007B28BF0B7B2880280A128A1595260A12AE
:100108008A115130F3000030F4000A128A15A7262C
:100118000A128A110030F300F4000A128A155F27C8
:100128000A128A11730883120313BE003E08CE0018
:100138000A128A159E260A128A111A30831203138C
:10014800BF00F730BE00BE0BA728BF0BA728AC28FE
:100158000A128A1595260A128A116030F3000030B7
:10016800F4000A128A15A7260A128A1183120313A9
:100178004208BE00BF013E08F3003F08F4000A121F
:100188008A15A7260A128A110A128A159E260A12A9
:100198008A111A3083120313BF00F730BE00BE0B5A
:1001A800D328BF0BD328D8280A128A1595260A12F5
:1001B8008A116130F3000030F4000A128A15A7266C
:1001C8000A128A110030F300F4000A128A155F2718
:1001D8000A128A11730883120313BE003E08C10075
:1001E8000A128A159E260A128A111A3083120313DC
:1001F800BF00F730BE00BE0BFF28BF0BFF28042945
:100208000A128A1595260A128A11D030F300003096
:10021800F4000A128A15A7260A128A110230F3007E
:100228000030F4000A128A15A7260A128A110A1247
:100238008A159E260A128A111A3083120313BF00E8
:10024800F730BE00BE0B2629BF0B26292B290A1220
:100258008A1595260A128A11D130F3000030F4006D
:100268000A128A15A7260A128A110030F300F40030
:100278000A128A155F270A128A1173088312031358
:10028800BE003E08CB000A128A159E260A128A1161
:100298001A3083120313BF00F730BE00BE0B522979
:1002A800BF0B522957290A128A1595260A128A1154
:1002B800D030F3000030F4000A128A15A7260A127B
:1002C8008A110330F3000030F4000A128A15A726B9
:1002D8000A128A110A128A159E260A128A111A30DF
:1002E80083120313BF00F730BE00BE0B7929BF0B82
:1002F80079297E290A128A1595260A128A11D1307F
:10030800F3000030F4000A128A15A7260A128A118F
:100318000030F300F4000A128A155F270A128A11C6
:10032800730883120313BE003E08FA000A128A15E6
:100338009E260A128A111A3083120313BF00F7305F
:10034800BE00BE0BA529BF0BA529AA290A128A152A
:1003580095260A128A11D030F3000030F4000A12F0
:100368008A15A7260A128A110130F3000030F4001A
:100378000A128A15A7260A128A110A128A159E26B7
:100388000A128A111A3083120313BF00F730BE0015
:10039800BE0BCC29BF0BCC29D1290A128A15952668
:1003A8000A128A11D130F3000030F4000A128A15BB
:1003B800A7260A128A110030F300F4000A128A15DF
:1003C8005F270A128A11730883120313BE003E08BE
:1003D800F9000A128A159E260A128A111A30831207
:1003E8000313BF00F730BE00BE0BF829BF0BF82976
:1003F800FD290A128A11A1260A128A1131280A1225
:100408008A110C28831203134E080A128A11A32793
:100418000A128A11F600760883120313CD007A03B4
:10042800031D172A182A252A4C30F6007608C90019
:100438007530F6007608C8006E30F6007608C700FA
:10044800992A02307A06031D2A2A2B2A382A4D3087
:10045800F6007608C9006130F6007608C8007230E8
:10046800F6007608C700992A03307A06031D3D2A4C
:100478003E2A4B2A4D30F6007608C9006930F6004E
:100488007608C8006530F6007608C700992A043057
:100498007A06031D502A512A5E2A4A30F600760849
:1004A800C9007530F6007608C8006530F600760891
:1004B800C700992A05307A06031D632A642A712A1F
:1004C8005630F6007608C9006930F6007608C8008C
:1004D8006530F6007608C700992A06307A06031DAB
:1004E800762A772A842A5330F6007608C9006130C4
:1004F800F6007608C8006230F6007608C700992A28
:1005080007307A06031D892A8A2A992A4430F60078
:100518007608C9006F30F6007608C8006D30F6001E
:100528007608C700C201C20A992A0A304B0203188A
:100538009E2A9F2AC32A3030F6007608C5004B0849
:100548000A128A11A3270A128A11F6007608831262
:100558000313C60007304B020318B32AB42AB92A7A
:1005680008148814C201C20A162B08108810073014
:100578007A060319C02AC12A162BC201162B1A3073
:100588004B020318C82AC92AF02A3130F600760827
:10059800C5004B08F03EF6007608F80078080A1205
:1005A8008A11A3270A128A11F60076088312031308
:1005B800C60007307A060319E22AE32AE42AC201B0
:1005C80008307802031CE92AEA2AED2A081488145C
:1005D800162B08108810162B3230F6007608C50046
:1005E8004B08E03EF6007608F80078080A128A11EF
:1005F800A3270A128A11F600760883120313C6008D
:100608000814881402307802031C0B2B0C2B0F2BB8
:10061800C201C20A162B07307A060319142B152BB0
:10062800162BC12A0A30790203181B2B1C2B2C2BE2
:100638003030F6007608C30079080A128A11A32719
:100648000A128A11F600760883120313C400B32B2A
:100658001A3079020318312B322B472B3130F60030
:100668007608C3007908F03EF6007608F8007808A6
:100678000A128A11A3270A128A11F6007608831231
:100688000313C400B32B2A30790203184C2B4D2BCB
:10069800622B3230F6007608C3007908E03EF60097
:1006A8007608F80078080A128A11A3270A128A1114
:1006B800F600760883120313C400B32B3A3079028C
:1006C8000318672B682B7D2B3330F6007608C300A0
:1006D8007908D03EF6007608F80078080A128A11E0
:1006E800A3270A128A11F600760883120313C4009E
:1006F800B32B4A3079020318822B832B982B343082
:10070800F6007608C3007908C03EF6007608F800BF
:1007180078080A128A11A3270A128A11F6007608A5
:1007280083120313C400B32B5A30790203189D2B8C
:100738009E2BB32B3530F6007608C3007908B03EFF
:10074800F6007608F80078080A128A11A3270A1218
:100758008A11F600760883120313C400B32B08002D
:1007680083160317880189018316031385018601FF
:1007780007138717880189018312031385018601EE
:10078800880108300A128A158F270A128A110A125C
:100798008A15E5260A128A11003083120313B00065
:1007A8000130AF008630AE00A030AD000A128A15C5
:1007B800C6270A128A118B170B17831603130C16F8
:1007C800831203130C120A128A1595260A128A112B
:1007D800D030F3000030F4000A128A15A7260A1256
:1007E8008A110230F3000030F4000A128A15A72695
:1007F8000A128A110630F3000030F4000A128A1532
:10080800A7260A128A110A128A159E260A128A1126
:100818001A3083120313B200F730B100B10B122C57
:10082800B20B122C172C0A128A1595260A128A1155
:10083800D130F3000030F4000A128A15A7260A12F4
:100848008A110030F300F4000A128A155F270A1291
:100858008A11730883120313B1003108CC000A12FD
:100868008A159E260A128A111A3083120313B200BF
:10087800F730B100B10B3E2CB20B3E2C432C0A12C0
:100888008A1595260A128A11D030F3000030F40038
:100898000A128A15A7260A128A110130F3000030BD
:1008A800F4000A128A15A7260A128A115930F30091
:1008B8000030F4000A128A15A7260A128A110A12B1
:1008C8008A159E260A128A111A3083120313B2005F
:1008D800F730B100B10B6E2CB20B6E2C732C0A12D0
:1008E8008A1595260A128A11D130F3000030F400D7
:1008F8000A128A15A7260A128A110030F300F4009A
:100908000A128A155F270A128A11730883120313C1
:10091800B1003108CC000A128A159E260A128A11E3
:100928001A3083120313B200F730B100B10B9A2CBE
:10093800B20B9A2C9F2C0A128A1595260A128A1134
:10094800D030F3000030F4000A128A15A7260A12E4
:100958008A110030F300F4000A128A15A7260A1239
:100968008A115830F3000030F4000A128A15A726BD
:100978000A128A110A128A159E260A128A111A3038
:1009880083120313B200F730B100B10BC92CB20BBC
:10099800C92CCE2C0A128A1595260A128A11D13032
:1009A800F3000030F4000A128A15A7260A128A11E9
:1009B8000030F300F4000A128A155F270A128A1120
:1009C800730883120313B1003108CC000A128A1588
:1009D8009E260A128A111A3083120313B200F730C6
:1009E800B100B10BF52CB20BF52CFA2C0A128A15B2
:1009F80095260A128A11D030F3000030F4000A124A
:100A08008A15A7260A128A110330F3000030F40071
:100A18000A128A15A7260A128A110630F300003036
:100A2800F4000A128A15A7260A128A110A128A15D0
:100A38009E260A128A111A3083120313B200F73065
:100A4800B100B10B252DB20B252D2A2D0A128A15BE
:100A580095260A128A11D130F3000030F4000A12E8
:100A68008A15A7260A128A110030F300F4000A1228
:100A78008A155F270A128A11730883120313B100BB
:100A88003108CC000A128A159E260A128A111A30D9
:100A980083120313B200F730B100B10B512DB20B22
:100AA800512D562D0800831203134908AB002B085B
:100AB800AE004808AB002B08AF004708AB002B0876
:100AC800B0002E30AB002B08B1002030AB002B0853
:100AD800B2004508AB002B08B3004608AB002B0852
:100AE800B4003A30AB002B08B5004308AB002B0824
:100AF800B6004408AB002B08B7002030AB002B0829
:100B0800B8000A30A4000030A5000A30F300003015
:100B1800F4004108AB00AC012B08F5002C08F600E6
:100B28000A128A11D0250A128A1174088312031333
:100B3800A7007308A6000A128A1104270A128A114C
:100B4800831203132408303EAD002D08B9000A3083
:100B5800A4000030A5004108AB00AC012B08A6009A
:100B68002C08A7000A128A1104270A128A11831274
:100B780003132408303EAD002D08BA00DF30AB0067
:100B88002B08BB004330AB002B08BC002030AB0067
:100B98002B08BD002E30080083120313A101F41F97
:100BA800D62DD72DDE2DF309F409F30A0319F40A1B
:100BB800A101A10AF61FE12DE22DEB2DF509F60999
:100BC800F50A0319F60A0130F7007708A106A20111
:100BD800A301730874040319F22DF32D2A2EA00122
:100BE800A00A012E01300310F30DF40DFF3E031D82
:100BF800F72D0130F7007708A007F41F042E052E03
:100C0800F62D01300310A20DA30DFF3E031D062E85
:100C180074087602031D122E73087502031C152E24
:100C2800162E1D2E7308F5027408031CF603F6022F
:100C3800221401300310F40CF30CFF3E031D1E2E8A
:100C48000130A002031D292E2A2E052E2108031982
:100C58002E2E2F2E342EA209A309A20A0319A30AA5
:100C68002308F4002208F30008000030831203135D
:100C7800AB000030AA000030A9000030A80023080B
:100C880022042104200403194A2E4B2E982EAC016D
:100C9800AC0A5B2E0130F3000310A00DA10DA20DCC
:100CA800A30DF30B502E0130F3007308AC07A31FFC
:100CB8005E2E5F2E4E2E0130F3000310A80DA90DF5
:100CC800AA0DAB0DF30B612E23082702031D762E08
:100CD80022082602031D762E21082502031D762EE2
:100CE80020082402031C792E7A2E892E2008A402BB
:100CF8002108031C210FA5022208031C220FA602AB
:100D08002308031C230FA702281401300310A30C87
:100D1800A20CA10CA00CFF3E031D8A2E0130AC02D0
:100D2800031D972E982E5F2E2B08A3002A08A200D9
:100D38002908A1002808A0000800E52E0A30A40010
:100D48000030A5000A30F3000030F4004108AB0081
:100D5800AC012B08F5002C08F6000A128A11D025E0
:100D68000A128A11740883120313A7007308A600D5
:100D78000A128A1104270A128A11831203132408FB
:100D8800303E9900032F0A30A4000030A500410826
:100D9800AB00AC012B08A6002C08A7000A128A1188
:100DA80004270A128A11831203132408303E99007B
:100DB800032F2C309900032F4D089900032FC001F1
:100DC800032F831203134008AB00AC012C08003A30
:100DD8000319EF2E032F2B08013A0319A22E033A09
:100DE8000319C72E013A0319DD2E073A0319E02E1D
:100DF800013A0319DD2E113A0319E32E032F0800D7
:100E080083120313AA01A71F0A2F0B2F122FA6095B
:100E1800A709A60A0319A70AAA01AA0AA51F152F36
:100E2800162F1B2FA409A509A40A0319A50A24082B
:100E380025040319202F212F502FA901A90A2F2F8C
:100E480001300310A40DA50DFF3E031D252F013011
:100E5800A8002808A907A51F322F332F242F2508FB
:100E68002702031D392F24082602031C3C2F3D2F7F
:100E7800432F2408A6022508031CA703A702013054
:100E88000310A50CA40CFF3E031D442F0130A9023A
:100E9800031D4F2F502F332F2A080319542F552F76
:100EA8005A2FA609A709A60A0319A70A2708A50001
:100EB8002608A40008005030F300730883120313B7
:100EC800A0004130F3007308A1005230F30073080A
:100ED800A2005130F3007308A3005530F3007308E3
:100EE800A4004530F3007308A5004F30F3007308E1
:100EF800A6005330F3007308A7003A30F3007308D4
:100F0800A8002030F3007308A9003030F3007308FC
:100F1800AA004D08F3007308AB002030F3007308F3
:100F2800AC002030F3007308AD002030F3007308E4
:100F3800AE002030F3007308AF0020300800F50041
:100F4800B92F3030E12F3130E12F3230E12F3330FB
:100F5800E12F3430E12F3530E12F3630E12F3730B3
:100F6800E12F3830E12F3930E12F7508F300F40113
:100F78007408003A0319C12FA52F7308003A031902
:100F8800A52F013A0319A72F033A0319A92F013AEC
:100F98000319AB2F073A0319AD2F013A0319AF2FE5
:100FA800033A0319B12F013A0319B32F0F3A031962
:100FB800B52F013A0319B72FA52F080038300A12A8
:100FC8008A15FB260A128A1106300A128A15FB2690
:100FD8000A128A110C300A128A15FB260A128A1183
:0E0FE80080300A128A15FB260A128A110800B0
:101D1E00F300730883120313860008000A128A1553
:101D2E00B1260A128A1583160313111408000A121B
:101D3E008A15B1260A128A15831603131115080087
:101D4E000A128A15B1260A128A1573088312031312
:101D5E0093000800831603131419B62EB72EB12E56
:101D6E0011081F39031DBC2EBD2EB12E0800831283
:101D7E0003130C1EC32EC42EC92E0130F0007008A2
:101D8E00C0070C1272088A00710E8300FE0E7E0EC2
:101D9E000900F50075080A128A158F260A128A158F
:101DAE00831203138914091109141A30F400F40B69
:101DBE00DE2E00008312031309100800831603138E
:101DCE001812181518138316031787118316031389
:101DDE009A011930990083120313981718131812C9
:101DEE008316031398160800F60076080A128A1551
:101DFE008F260A128A1583120313891009110914EA
:101E0E000D30F500FB30F400F40B0B2FF50B0B2F00
:101E1E00102F831203130910080083120313A2005C
:101E2E00A001A1012D2F20082207F60076088400BC
:101E3E0000080A128A15D0260A128A15013083125A
:101E4E000313A0070318A10A0030A10720082207D8
:101E5E00F6007608840083130008031D372F382FF1
:101E6E001A2F080083120313A1002103031D402F14
:101E7E00412F4D2F77087F3EA0002008A200220898
:101E8E000A128A15FB260A128A155E2F02302106C7
:101E9E00031D522F532F5E2F7708BF3EA000200840
:101EAE00A20022080A128A15FB260A128A150800B9
:101EBE000A128A15B1260A128A1583160313911572
:101ECE000A128A15B1260A128A15831203131308F1
:101EDE00F500F6017508A0007608A1000A128A1511
:101EEE00B1260A128A1573037404031D7F2F802FE7
:101EFE00842F831603139112872F831603139116C3
:101F0E001116831203132108F4002008F3000800B1
:101F1E00F500AF2F831603130F088F3940388F004B
:101F2E000F14C52F831603130F088F3950388F00E7
:101F3E000F14C52F831603130F088F3960388F00C7
:101F4E000F14C52F7030831603138F040F14C52F73
:101F5E007508F300F4017408003A0319B72FC52F62
:101F6E007308013A0319912F033A0319992F063A70
:101F7E000319A12F0C3A0319A92FC52F08002830D9
:101F8E008312031394008316031391018312031318
:101F9E002D08F4002E08F5002F08F6003008F70083
:101FAE0002300310F40DF50DF60DF70DFF3E031D77
:101FBE00D82F7708A3007608A2007508A100740830
:101FCE00A0000030A7007A30A6001230A500003025
:101FDE00A4000A128A1139260A128A1583120313D3
:101FEE002008FF3E831603139300940187150716EE
:021FFE000800D9
:04400E00D420FF3F7C
:00000001FF
