:060000000A128A1110280B
:10000800FE00030E83120313A5000408A6000A08C5
:10001800A7000A128A15B22D0A128A11132883130F
:100028004D3084005F300A128A1578250A128A1129
:1000380083010A128A1120280A128A1124220A121C
:100048008A110A128A15CB250A128A118312031300
:10005800AC01AC0A01300A128A153E260A128A112E
:100068000A128A119B250A128A110A128A15192660
:100078000A128A1183120313AC01AC0A02300A1265
:100088008A153E260A128A110A128A11AD270A1207
:100098008A110A128A1519260A128A110A128A1155
:1000A800ED230A128A110A128A1580250A128A116A
:1000B800503083120313A8000030A9000A128A15D1
:1000C80092250A128A11003083120313A800A9008E
:1000D8000A128A1592250A128A110A128A15892586
:1000E8000A128A111A3083120313CC00F730CB009E
:1000F800CB0B7C28CC0B7C2881280A128A158025FA
:100108000A128A11513083120313A8000030A90083
:100118000A128A1592250A128A11003083120313D3
:10012800A800A9000A128A1564260A128A118312E5
:1001380003132808CB004B08DE000A128A1589250C
:100148000A128A111A3083120313CC00F730CB003D
:10015800CB0BAC28CC0BAC28B1280A128A15802509
:100168000A128A11603083120313A8000030A90014
:100178000A128A1592250A128A118312031350084B
:10018800CB00CC014B08A8004C08A9000A128A151C
:1001980092250A128A110A128A1589250A128A11C9
:1001A8001A3083120313CC00F730CB00CB0BDA28BC
:1001B800CC0BDA28DF280A128A1580250A128A1140
:1001C800613083120313A8000030A9000A128A15AF
:1001D80092250A128A11003083120313A800A9007D
:1001E8000A128A1564260A128A1183120313280830
:1001F800CB004B08CE000A128A1589250A128A11EB
:100208001A3083120313CC00F730CB00CB0B0A292A
:10021800CC0B0A290F290A128A1580250A128A117D
:10022800D03083120313A8000030A9000A128A15DF
:1002380092250A128A11023083120313A800003093
:10024800A9000A128A1592250A128A110A128A1519
:1002580089250A128A111A3083120313CC00F73049
:10026800CB00CB0B3529CC0B35293A290A128A1534
:1002780080250A128A11D13083120313A800003096
:10028800A9000A128A1592250A128A1100308312CF
:100298000313A800A9000A128A1564260A128A11F3
:1002A800831203132808CB004B08DA000A128A15B8
:1002B80089250A128A111A3083120313CC00F730E9
:1002C800CB00CB0B6529CC0B65296A290A128A1544
:1002D80080250A128A11D03083120313A800003037
:1002E800A9000A128A1592250A128A11033083126C
:1002F8000313A8000030A9000A128A1592250A12D1
:100308008A110A128A1589250A128A111A3083124B
:100318000313CC00F730CB00CB0B9029CC0B9029E2
:1003280095290A128A1580250A128A11D13083125A
:100338000313A8000030A9000A128A1592250A1290
:100348008A11003083120313A800A9000A128A1523
:1003580064260A128A11831203132808CB004B085B
:10036800DB000A128A1589250A128A111A308312AB
:100378000313CC00F730CB00CB0BC029CC0BC02922
:10038800C5290A128A1580250A128A11D0308312CB
:100398000313A8000030A9000A128A1592250A1230
:1003A8008A11013083120313A8000030A9000A1231
:1003B8008A1592250A128A110A128A1589250A12A3
:1003C8008A111A3083120313CC00F730CB00CB0B01
:1003D800EB29CC0BEB29F0290A128A1580250A1281
:1003E8008A11D13083120313A8000030A9000A1221
:1003F8008A1592250A128A11003083120313A80065
:10040800A9000A128A1564260A128A118312031394
:100418002808CB004B08D9000A128A1589250A1228
:100428008A111A3083120313CC00F730CB00CB0BA0
:100438001B2ACC0B1B2A202A2A280A128A111028C8
:100448008316031788018901831603138501860122
:100458008801890183120313850186018801083008
:100468000A128A1596260A128A110A128A159C25DA
:100478000A128A11003083120313B9000130B80040
:100488008630B700A030B6000A128A15CF260A12A5
:100498008A118B170B17831603130C168312031379
:1004A8000C120A128A1580250A128A11D03083127A
:1004B8000313A8000030A9000A128A1592250A120F
:1004C8008A11023083120313A8000030A9000A120F
:1004D8008A1592250A128A11063083120313A8007E
:1004E8000030A9000A128A1592250A128A110A12E6
:1004F8008A1589250A128A111A3083120313BF003C
:10050800F730BE00BE0B862ABF0B862A8B2A0A123A
:100518008A1580250A128A11D13083120313A80084
:100528000030A9000A128A1592250A128A11003091
:1005380083120313A800A9000A128A1564260A1256
:100548008A11831203132808BE003E08DC000A1231
:100558008A1589250A128A111A3083120313BF00DB
:10056800F730BE00BE0BB62ABF0BB62ABB2A0A124A
:100578008A1580250A128A11D03083120313A80025
:100588000030A9000A128A1592250A128A11013030
:1005980083120313A8000030A9000A128A159225B5
:1005A8000A128A11593083120313A8000030A900D7
:1005B8000A128A1592250A128A110A128A158925A1
:1005C8000A128A111A3083120313BF00F730BE00D3
:1005D800BE0BEC2ABF0BEC2AF12A0A128A158025D9
:1005E8000A128A11D13083120313A8000030A9001F
:1005F8000A128A1592250A128A11003083120313EF
:10060800A800A9000A128A1564260A128A11831200
:1006180003132808BE003E08DC000A128A15892543
:100628000A128A111A3083120313BF00F730BE0072
:10063800BE0B1C2BBF0B1C2B212B0A128A158025E5
:100648000A128A11D03083120313A8000030A900BF
:100658000A128A1592250A128A110030831203138E
:10066800A800A9000A128A1592250A128A11583080
:1006780083120313A8000030A9000A128A159225D4
:100688000A128A110A128A1589250A128A111A3041
:1006980083120313BF00F730BE00BE0B512BBF0BF4
:1006A800512B562B0A128A1580250A128A11D1302D
:1006B80083120313A8000030A9000A128A15922594
:1006C8000A128A11003083120313A800A9000A1223
:1006D8008A1564260A128A11831203132808BE0099
:1006E8003E08DC000A128A1589250A128A111A3076
:1006F80083120313BF00F730BE00BE0B812BBF0B64
:10070800812B862B0A128A1580250A128A11D0306D
:1007180083120313A8000030A9000A128A15922533
:100728000A128A11033083120313A8000030A900AB
:100738000A128A1592250A128A11063083120313A7
:10074800A8000030A9000A128A1592250A128A11F7
:100758000A128A1589250A128A111A30831203137C
:10076800BF00F730BE00BE0BB72BBF0BB72BBC2B9F
:100778000A128A1580250A128A11D13083120313AE
:10078800A8000030A9000A128A1592250A128A11B7
:10079800003083120313A800A9000A128A156426E0
:1007A8000A128A11831203132808BE003E08DC00CF
:1007B8000A128A1589250A128A111A30831203131C
:1007C800BF00F730BE00BE0BE72BBF0BE72BEC2BAF
:1007D8000800831203135E080A128A1509270A12F1
:1007E8008A1183120313AB002B08DD005B03031D82
:1007F800FE2BFF2B0C2C4C30AB002B08D700753090
:10080800AB002B08D6006E30AB002B08D500802C2F
:1008180002305B06031D112C122C1F2C4D30AB002F
:100828002B08D7006130AB002B08D6007230AB0024
:100838002B08D500802C03305B06031D242C252CA7
:10084800322C4D30AB002B08D7006930AB002B0899
:10085800D6006530AB002B08D500802C04305B0631
:10086800031D372C382C452C4A30AB002B08D700F9
:100878007530AB002B08D6006530AB002B08D500CF
:10088800802C05305B06031D4A2C4B2C582C563007
:10089800AB002B08D7006930AB002B08D6006530B9
:1008A800AB002B08D500802C06305B06031D5D2CA1
:1008B8005E2C6B2C5330AB002B08D7006130AB009B
:1008C8002B08D6006230AB002B08D500802C0730EF
:1008D8005B06031D702C712C802C4430AB002B0858
:1008E800D7006F30AB002B08D6006D30AB002B085B
:1008F800D500D001D00A802C0A305A020318852C62
:10090800862CAA2C3030AB002B08D3005A080A12C8
:100918008A1509270A128A1183120313AB002B08C0
:10092800D40007305A0203189A2C9B2CA02C0814C8
:100938008814D001D00AFD2C0810881007305B06F7
:100948000319A72CA82CFD2CD001FD2C1A305A0213
:100958000318AF2CB02CD72C3130AB002B08D300A8
:100968005A08F03EAB002B08CF004F080A128A1530
:1009780009270A128A1183120313AB002B08D4002B
:1009880007305B060319C92CCA2CCB2CD0010830C0
:100998004F02031CD02CD12CD42C08148814FD2C05
:1009A80008108810FD2C3230AB002B08D3005A08F1
:1009B800E03EAB002B08CF004F080A128A15092722
:1009C8000A128A1183120313AB002B08D4000814EF
:1009D800881402304F02031CF22CF32CF62CD001A1
:1009E800D00AFD2C07305B060319FB2CFC2CFD2CD0
:1009F800A82C0A3059020318022D032D132D30306C
:100A0800AB002B08D10059080A128A1509270A12C7
:100A18008A1183120313AB002B08D2009A2D1A30C7
:100A280059020318182D192D2E2D3130AB002B0823
:100A3800D1005908F03EAB002B08CF004F080A122E
:100A48008A1509270A128A1183120313AB002B088F
:100A5800D2009A2D2A3059020318332D342D492DEE
:100A68003230AB002B08D1005908E03EAB002B0810
:100A7800CF004F080A128A1509270A128A11831211
:100A88000313AB002B08D2009A2D3A3059020318F1
:100A98004E2D4F2D642D3330AB002B08D100590853
:100AA800D03EAB002B08CF004F080A128A15092741
:100AB8000A128A1183120313AB002B08D2009A2D55
:100AC8004A3059020318692D6A2D7F2D3430AB0046
:100AD8002B08D1005908C03EAB002B08CF004F08A7
:100AE8000A128A1509270A128A1183120313AB0006
:100AF8002B08D2009A2D5A3059020318842D852DBF
:100B08009A2D3530AB002B08D1005908B03EAB0008
:100B18002B08CF004F080A128A1509270A128A11D2
:100B280083120313AB002B08D2009A2D08008312FE
:100B380003135708B8003808BB005608B80038082F
:100B4800BC005508B8003808BD002E30B800380879
:100B5800BE002030B8003808BF005308B800380875
:100B6800C0005408B8003808C1003A30B800380846
:100B7800C2005108B8003808C3005208B800380845
:100B8800C4002030B8003808C5000A30B100003071
:100B9800B2000A30A8000030A9004E08B800B90118
:100BA8003808AA003908AB000A128A1114260A125A
:100BB8008A11831203132908B4002808B3000A1203
:100BC8008A15A5270A128A11831203133108303EA9
:100BD800BA003A08C6000A30B1000030B2004E0828
:100BE800B800B9013808B3003908B4000A128A15E8
:100BF800A5270A128A11831203133108303EBA005E
:100C08003A08C700DF30B8003808C8004330B800D9
:100C18003808C9002030B8003808CA003B3008003E
:100C280083120313AE01A91F1A2E1B2E222EA80908
:100C3800A909A80A0319A90AAE01AE0AAB1F252EF5
:100C4800262E2F2EAA09AB09AA0A0319AB0A0130CE
:100C5800AC002C08AE06AF01B0012808290403191E
:100C6800362E372E6E2EAD01AD0A452E01300310FB
:100C7800A80DA90DFF3E031D3B2E0130AC002C082A
:100C8800AD07A91F482E492E3A2E01300310AF0D8B
:100C9800B00DFF3E031D4A2E29082B02031D562EB8
:100CA80028082A02031C592E5A2E612E2808AA0247
:100CB8002908031CAB03AB022F1401300310A90C45
:100CC800A80CFF3E031D622E0130AD02031D6D2EE0
:100CD8006E2E492E2E080319722E732E782EAF0908
:100CE800B009AF0A0319B00A3008A9002F08A800F4
:100CF8000800003083120313B4000030B300003042
:100D0800B2000030B1002B082A0429042804031972
:100D18008E2E8F2EDC2EB501B50A9F2E0130B00025
:100D28000310A80DA90DAA0DAB0DB00B942E013020
:100D3800B0003008B507AB1FA22EA32E922E0130AB
:100D4800B0000310B10DB20DB30DB40DB00BA52E4C
:100D58002B082F02031DBA2E2A082E02031DBA2EB5
:100D680029082D02031DBA2E28082C02031CBD2EAB
:100D7800BE2ECD2E2808AC022908031C290FAD026F
:100D88002A08031C2A0FAE022B08031C2B0FAF02E4
:100D9800311401300310AB0CAA0CA90CA80CFF3EAF
:100DA800031DCE2E0130B502031DDB2EDC2EA32E33
:100DB8003408AB003308AA003208A9003108A8009B
:100DC8000800F601F11FE92EEA2EF12EF009F109CB
:100DD800F00A0319F10AF601F60AF31FF42EF52EAC
:100DE800FE2EF209F309F20A0319F30A0130F4009E
:100DF8007408F606F701F801700871040319052F45
:100E0800062F3D2FF501F50A142F01300310F00DC0
:100E1800F10DFF3E031D0A2F0130F4007408F50799
:100E2800F11F172F182F092F01300310F70DF80D98
:100E3800FF3E031D192F71087302031D252F70082B
:100E48007202031C282F292F302F7008F202710814
:100E5800031CF303F302771401300310F10CF00CB8
:100E6800FF3E031D312F0130F502031D3C2F3D2F9E
:100E7800182F76080319412F422F472FF709F80931
:100E8800F70A0319F80A7808F1007708F000080053
:100E98008E2F0A30F9000030FA000A30F0000030D6
:100EA800F1004E08A200A3012208F2002308F30073
:100EB8000A128A11E5260A128A117108FC007008C4
:100EC800FB000A128A154A270A128A117908303E4D
:100ED800831203139900AC2F0A30F9000030FA008E
:100EE8004E08A200A3012208FB002308FC000A12F6
:100EF8008A154A270A128A117908303E8312031389
:100F08009900AC2F2C309900AC2F5D089900AC2FBC
:100F1800CD01AC2F831203134D08A200A3012308AF
:100F2800003A0319982FAC2F2208013A03194D2FC4
:100F3800033A0319702F013A0319862F073A031948
:100F4800892F013A0319862F113A03198C2FAC2FD8
:100F58000800503083120313A8002808A900413064
:100F6800A8002808AA005230A8002808AB00513071
:100F7800A8002808AC005530A8002808AD00453066
:100F8800A8002808AE004F30A8002808AF0053304A
:100F9800A8002808B0003A30A8002808B10020307E
:100FA800A8002808B2003030A8002808B3005D085F
:100FB800A8002808B4002030A8002808B500203070
:100FC800A8002808B6002030A8002808B70020305C
:100FD800A8002808B800293008008316031314193C
:100FE800F62FF72FF12F11081F39031DFC2FFD2FA6
:040FF800F12F0800CD
:101AE40083120313A80028088600080064008001FC
:101AF400840A0406031900340406792D0A128A1193
:101B0400F1270A128A1583160313111408000A1206
:101B14008A11F1270A128A15831603131115080076
:101B24000A128A11F1270A128A158312031328084C
:101B3400930008008316031318121815181383163C
:101B440003178711831603139A011930990083121E
:101B54000313981718131812831603139816080002
:101B64000C1EB52DB62DC22D0130A4002408CD07BE
:101B74000A128A114C270A128A15831203130C12B3
:101B840027088A0026088400250E8300FE0E7E0E98
:101B9400090038300A128A15FD250A128A15063002
:101BA4000A128A15FD250A128A150C300A128A15A2
:101BB400FD250A128A1580300A128A15FD250A129B
:101BC4008A15080083120313AA002A080A128A1528
:101BD40072250A128A158312031389140911091430
:101BE400193083120313A900A90BF62DF92D8312C2
:101BF40003130910080083120313AB002B080A1205
:101C04008A1572250A128A15831203138910091181
:101C140009140D3083120313AA00FB30A900A90B89
:101C2400112EAA0B112E831203130910080083121C
:101C34000313AE00AC01AD01322E2C082E07AB000D
:101C44002B08840000080A128A15E4250A128A1552
:101C5400013083120313AC070318AD0A0030AD073B
:101C64002C082E07AB002B08840083130008031DE7
:101C74003C2E3D2E1F2E080083120313AE002E03AC
:101C8400031D452E462E522E2C087F3EAD002D08F6
:101C9400AF002F080A128A15FD250A128A15632E31
:101CA40002302E06031D572E582E632E2C08BF3EDD
:101CB400AD002D08AF002F080A128A15FD250A125F
:101CC4008A1508000A128A11F1270A128A15831646
:101CD400031391150A128A11F1270A128A15831225
:101CE40003131308AA00AB012A08AC002B08AD00AB
:101CF4000A128A11F1270A128A1583120313280380
:101D04002904031D862E872E8B2E8316031391120E
:101D14008E2E8316031391161116831203132D08A6
:101D2400A9002C08A800080083120313AA00B82EE7
:101D3400831603130F088F3940388F000F14CE2EEB
:101D4400831603130F088F3950388F000F14CE2ECB
:101D5400831603130F088F3960388F000F14CE2EAB
:101D64007030831603138F040F14CE2E2A08A80094
:101D7400A9012908003A0319C02ECE2E2808013AD9
:101D840003199A2E033A0319A22E063A0319AA2E0E
:101D94000C3A0319B22ECE2E0800283083120313F6
:101DA4009400831603139101831203133608BA00B7
:101DB4003708BB003808BC003908BD0002300310E6
:101DC400BA0DBB0DBC0DBD0DFF3E031DE12E3D083C
:101DD400AB003C08AA003B08A9003A08A800003060
:101DE400AF007A30AE001230AD000030AC000A1201
:101DF4008A117D260A128A15831203132808FF3ECE
:101E040083160313930094018715071608008312A1
:101E14000313AA00212F3030492F3130492F32309B
:101E2400492F3330492F3430492F3530492F36303C
:101E3400492F3730492F3830492F3930492F2A0854
:101E4400A800A9012908003A0319292F0D2F2808F1
:101E5400003A03190D2F013A03190F2F033A0319FE
:101E6400112F013A0319132F073A0319152F013AB9
:101E74000319172F033A0319192F013A03191B2FBA
:101E84000F3A03191D2F013A03191F2F0D2F0800B4
:101E940083120313A101FC1F502F512F582FFB094C
:101EA400FC09FB0A0319FC0AA101A10AFA1F5B2F12
:101EB4005C2F612FF909FA09F90A0319FA0A79085A
:101EC4007A040319662F672F962FA001A00A752F95
:101ED40001300310F90DFA0DFF3E031D6B2F013085
:101EE400FD007D08A007FA1F782F792F6A2F7A0842
:101EF4007C02031D7F2F79087B02031C822F832F12
:101F0400892F7908FB027A08031CFC03FC020130C8
:101F14000310FA0CF90CFF3E031D8A2F0130A002B6
:101F2400031D952F962F792F210803199A2F9B2F84
:101F3400A02FFB09FC09FB0A0319FC0A7C08FA0020
:101F44007B08F900080083120313B701B41FAB2FF9
:101F5400AC2FB32FB309B409B30A0319B40AB701F8
:101F6400B70AB21FB62FB72FBC2FB109B209B10AF5
:101F74000319B20A310832040319C12FC22FF12FF9
:101F8400B601B60AD02F01300310B10DB20DFF3ED9
:101F9400031DC62F0130B5003508B607B21FD32F75
:101FA400D42FC52F32083402031DDA2F310833022F
:101FB400031CDD2FDE2FE42F3108B3023208031C8B
:101FC400B403B40201300310B20CB10CFF3E031D84
:101FD400E52F0130B602031DF02FF12FD42F37085F
:101FE4000319F52FF62FFB2FB309B409B30A03190C
:0C1FF400B40A3408B2003308B100080041
:04400E00D420FF3F7C
:00000001FF
