:060000000A128A11F32F21
:10000A00F6007603031D0A280B28172874087F3E7A
:10001A00F5007508F70077080A128A1548270A12A8
:10002A008A11282802307606031D1C281D28282834
:10003A007408BF3EF5007508F70077080A128A159A
:10004A0048270A128A1108002830831203139400E1
:10005A00831603139101831203132008A4002108B5
:10006A00A5002208A6002308A70002300310A40D49
:10007A00A50DA60DA70DFF3E031D3B282708F3007B
:10008A002608F2002508F1002408F0000030F700E5
:10009A007A30F6001230F5000030F4000A128A11A4
:1000AA00FB200A128A117008FF3E8316031393007D
:1000BA009401871507160800F200772830309F2828
:1000CA0031309F2832309F2833309F2834309F2880
:1000DA0035309F2836309F2837309F2838309F2860
:1000EA0039309F287208F000F1017108003A0319AB
:1000FA007F2863287008003A03196328013A031914
:10010A006528033A03196728013A03196928073A47
:10011A0003196B28013A03196D28033A03196F284A
:10012A00013A031971280F3A03197328013A03197E
:10013A0075286328080083120313A101FC1FA6284F
:10014A00A728AE28FB09FC09FB0A0319FC0AA1012E
:10015A00A10AFA1FB128B228B728F909FA09F90A37
:10016A000319FA0A79087A040319BC28BD28EC286D
:10017A00A001A00ACB2801300310F90DFA0DFF3EA9
:10018A00031DC1280130FD007D08A007FA1FCE28F3
:10019A00CF28C0287A087C02031DD52879087B025B
:1001AA00031CD828D928DF287908FB027A08031CFF
:1001BA00FC03FC0201300310FA0CF90CFF3E031D8C
:1001CA00E0280130A002031DEB28EC28CF282108E3
:1001DA000319F028F128F628FB09FC09FB0A031980
:1001EA00FC0A7C08FA007B08F90008000030FC00D1
:1001FA000030FB000030FA000030F9007308720486
:10020A007104700403190A290B295829FD01FD0AF2
:10021A001B290130F8000310F00DF10DF20DF30D5A
:10022A00F80B10290130F8007808FD07F31F1E2982
:10023A001F290E290130F8000310F90DFA0DFB0DE4
:10024A00FC0DF80B212973087702031D3629720861
:10025A007602031D362971087502031D36297008B6
:10026A007402031C39293A2949297008F4027108D1
:10027A00031C710FF5027208031C720FF602730851
:10028A00031C730FF702791401300310F30CF20CFC
:10029A00F10CF00CFF3E031D4A290130FD02031D3B
:1002AA00572958291F297C08F3007B08F2007A088D
:1002BA00F1007908F0000800F601F11F65296629A6
:1002CA006D29F009F109F00A0319F10AF601F60A93
:1002DA00F31F702971297A29F209F309F20A03191D
:1002EA00F30A0130F4007408F606F701F801700801
:1002FA007104031981298229B929F501F50A90297E
:10030A0001300310F00DF10DFF3E031D8629013067
:10031A00F4007408F507F11F9329942985290130FF
:10032A000310F70DF80DFF3E031D9529710873029E
:10033A00031DA12970087202031CA429A529AC294E
:10034A007008F2027108031CF303F30277140130F8
:10035A000310F10CF00CFF3E031DAD290130F5022C
:10036A00031DB829B929942976080319BD29BE297C
:10037A00C329F709F809F70A0319F80A7808F100F6
:10038A007708F0000800831203134E08A20022081F
:10039A00A5004D08A2002208A6004C08A2002208C7
:1003AA00A7002E30A2002208A8002030A2002208AE
:1003BA00A9004A08A2002208AA004B08A2002208A3
:1003CA00AB003A30A2002208AC004808A20022087A
:1003DA00AD004908A2002208AE002030A20022087F
:1003EA00AF000A30F9000030FA000A30F00000309D
:1003FA00F1004508A200A3012208F2002308F30035
:10040A000A128A1161210A128A117108FC00700805
:10041A00FB000A128A11A0200A128A117908303EBA
:10042A0083120313A4002408B0000A30F900003034
:10043A00FA004508A200A3012208FB002308FC00D9
:10044A000A128A11A0200A128A117908303E8312F0
:10045A000313A4002408B100DF30A2002208B2006E
:10046A004330A2002208B3002030A2002208B400C0
:10047A0025300800831203134708031D452A462A1C
:10048A00882A5030F0007008A0004130F00070084F
:10049A00A1005230F0007008A2005130F00070083C
:1004AA00A3005530F0007008A4004530F000700831
:1004BA00A5004F30F0007008A6005330F000700815
:1004CA00A7003A30F0007008A8002030F000700849
:1004DA00A9003030F0007008AA005408F000700833
:1004EA00AB002030F0007008AC002030F00070083B
:1004FA00AD002030F0007008AE002030F000700827
:10050A00AF002030C92A4330F0007008B0004530EF
:10051A00F0007008B1005230F0007008B20052309A
:10052A00F0007008B3004130F0007008B4004430A5
:10053A00F0007008B5004F30F0007008B6002030A7
:10054A00F0007008B7002030F0007008B8002030C2
:10055A00F0007008B9002030F0007008BA002030AE
:10056A00F0007008BB002030F0007008BC0020309A
:10057A00F0007008BD002030F0007008BE00203086
:10058A00F0007008BF003030080083160317880196
:10059A008901831603138501860188018901831263
:1005AA00031385018601880108300A128A15C927B2
:1005BA000A128A11003083120313A3000130A20029
:1005CA008630A100A030A0000A128A1129200A123E
:1005DA008A110A128A150A270A128A11D030F000E3
:1005EA000030F1000A128A151C270A128A110230F9
:1005FA00F0000030F1000A128A151C270A128A112B
:10060A000630F0000030F1000A128A151C270A127F
:10061A008A110A128A1513270A128A111A308312AA
:10062A000313A900F730A800A80B192BA90B192B43
:10063A001E2B0A128A150A270A128A11D130F000D3
:10064A000030F1000A128A151C270A128A1100309A
:10065A00F000F1000A128A159B270A128A11700803
:10066A0083120313A8002808D3000A128A15132735
:10067A000A128A111A3083120313A900F730A8004C
:10068A00A80B452BA90B452B4A2B0A128A150A27B8
:10069A000A128A11D030F0000030F1000A128A15CD
:1006AA001C270A128A110130F0000030F1000A12E8
:1006BA008A151C270A128A115930F0000030F100FD
:1006CA000A128A151C270A128A110A128A15132776
:1006DA000A128A111A3083120313A900F730A800EC
:1006EA00A80B752BA90B752B7A2B0A128A150A27C8
:1006FA000A128A11D130F0000030F1000A128A156C
:10070A001C270A128A110030F000F1000A128A1519
:10071A009B270A128A11700883120313A80028085B
:10072A00D3000A128A1513270A128A111A30831261
:10073A000313A900F730A800A80BA12BA90BA12B22
:10074A00A62B0A128A150A270A128A11D030F0003B
:10075A000030F1000A128A151C270A128A11003089
:10076A00F000F1000A128A151C270A128A110030B9
:10077A00F000F1000A128A151C270A128A110A12BD
:10078A008A1513270A128A111A3083120313A90031
:10079A00F730A800A80BCF2BA90BCF2BD42B0A120A
:1007AA008A150A270A128A11D130F0000030F100A6
:1007BA000A128A151C270A128A110030F000F10069
:1007CA000A128A159B270A128A11700883120313C8
:1007DA00A8002808D3000A128A1513270A128A11B8
:1007EA001A3083120313A900F730A800A80BFB2BB9
:1007FA00A90BFB2B002C0A128A150A270A128A1146
:10080A00D030F0000030F1000A128A151C270A12B3
:10081A008A110330F0000030F1000A128A151C27F1
:10082A000A128A110130F0000030F1000A128A150A
:10083A001C270A128A110A128A1513270A128A1108
:10084A001A3083120313A900F730A800A80B2B2C27
:10085A00A90B2B2C302C0A128A150A270A128A1184
:10086A00D130F0000030F1000A128A151C270A1252
:10087A008A110030F000F1000A128A159B270A1229
:10088A008A11700883120313A8002808D3000A12D9
:10089A008A1513270A128A111A3083120313A90020
:1008AA00F730A800A80B572CA90B572C5C2C080072
:1008BA008312031355080A128A1161200A128A1137
:1008CA00F300730883120313D4005203031D6E2C22
:1008DA006F2C7C2C4C30F3007308CE007530F3007B
:1008EA007308CD006E30F3007308CC00F02C023090
:1008FA005206031D812C822C8F2C4D30F300730875
:10090A00CE006130F3007308CD007230F300730833
:10091A00CC00F02C03305206031D942C952CA22CEB
:10092A004D30F3007308CE006930F3007308CD0030
:10093A006530F3007308CC00F02C04305206031D16
:10094A00A72CA82CB52C4A30F3007308CE007530BA
:10095A00F3007308CD006530F3007308CC00F02C67
:10096A0005305206031DBA2CBB2CC82C5630F30096
:10097A007308CE006930F3007308CD006530F300C8
:10098A007308CC00F02C06305206031DCD2CCE2C59
:10099A00DB2C5330F3007308CE006130F300730888
:1009AA00CD006230F3007308CC00F02C07305206F9
:1009BA00031DE02CE12CF02C4430F3007308CE0028
:1009CA006F30F3007308CD006D30F3007308CC006C
:1009DA00C701C70AF02C0A3051020318F52CF62C6D
:1009EA00192D3030F3007308CA0051080A128A110F
:1009FA0061200A128A11F300730883120313CB00D1
:100A0A000730510203180A2D0B2D102DC030860015
:100A1A00C701C70A692D8601073052060319162D28
:100A2A00172D692DC701692D1A30510203181E2D81
:100A3A001F2D452D3130F3007308CA005108F03ECE
:100A4A00F3007308C60046080A128A1161200A12C6
:100A5A008A11F300730883120313CB00073052067E
:100A6A000319382D392D3A2DC70108304602031CC7
:100A7A003F2D402D432DC0308600692D8601692DFA
:100A8A003230F3007308CA005108E03EF3007308DD
:100A9A00C60046080A128A1161200A128A11F30056
:100AAA00730883120313CB00C0308600023046025B
:100ABA00031C602D612D622D0D2D0730520603197E
:100ACA00672D682D692D172D0A30500203186E2DD7
:100ADA006F2D7F2D3030F3007308C80050080A12BA
:100AEA008A1161200A128A11F30073088312031310
:100AFA00C900062E1A3050020318842D852D9A2D0E
:100B0A003130F3007308C8005008F03EF300730850
:100B1A00C60046080A128A1161200A128A11F300D5
:100B2A00730883120313C900062E2A3050020318D1
:100B3A009F2DA02DB52D3230F3007308C800500840
:100B4A00E03EF3007308C60046080A128A116120C3
:100B5A000A128A11F300730883120313C900062EBE
:100B6A003A3050020318BA2DBB2DD02D3330F30082
:100B7A007308C8005008D03EF3007308C600460840
:100B8A000A128A1161200A128A11F3007308831269
:100B9A000313C900062E4A3050020318D52DD62D4C
:100BAA00EB2D3430F3007308C8005008C03EF30040
:100BBA007308C60046080A128A1161200A128A11AD
:100BCA00F300730883120313C900062E5A30500229
:100BDA000318F02DF12D062E3530F3007308C800E6
:100BEA005008B03EF3007308C60046080A128A117C
:100BFA0061200A128A11F300730883120313C900D1
:100C0A00062E08000A128A11CA220A128A110A1228
:100C1A008A1561270A128A110A128A15FB260A12F4
:100C2A008A110A128A15FB260A128A11F401F40A99
:100C3A0001300A128A1105200A128A110A128A112F
:100C4A00C8210A128A110A128A157A270A128A11E7
:100C5A00F401F40A02300A128A1105200A128A11D2
:100C6A000A128A113F220A128A110A128A157A274F
:100C7A000A128A110A128A115D240A128A110A12A8
:100C8A008A150A270A128A115030F0000030F10042
:100C9A000A128A151C270A128A110030F000F10084
:100CAA000A128A151C270A128A110A128A15132790
:100CBA000A128A11033083120313C2000830C100DA
:100CCA007630C000C00B672EC10B672EC20B672E91
:100CDA0000000A128A150A270A128A115130F000F6
:100CEA000030F1000A128A151C270A128A110030F4
:100CFA00F000F1000A128A159B270A128A1170085D
:100D0A0083120313C0004008D5000A128A1513275C
:100D1A000A128A11033083120313C2000830C10079
:100D2A007630C000C00B972EC10B972EC20B972EA0
:100D3A0000000A128A150A270A128A116030F00086
:100D4A000030F1000A128A151C270A128A1183122E
:100D5A0003134708C000C1014008F0004108F10030
:100D6A000A128A151C270A128A110A128A151327CF
:100D7A000A128A111A3083120313C100F730C00015
:100D8A00C00BC52EC10BC52ECA2E0A128A150A27F8
:100D9A000A128A116130F0000030F1000A128A1535
:100DAA001C270A128A110030F000F1000A128A1573
:100DBA009B270A128A11700883120313C000400885
:100DCA00C5000A128A1513270A128A111A308312C9
:100DDA000313C100F730C000C00BF12EC10BF12E76
:100DEA00F62E0A128A150A270A128A11D030F00042
:100DFA000030F1000A128A151C270A128A110230E1
:100E0A00F0000030F1000A128A151C270A128A1112
:100E1A000A128A1513270A128A111A308312031327
:100E2A00C100F730C000C00B182FC10B182F1D2F9F
:100E3A000A128A150A270A128A11D130F0000030E4
:100E4A00F1000A128A151C270A128A110030F000D2
:100E5A00F1000A128A159B270A128A117008831256
:100E6A000313C0004008D1000A128A1513270A1278
:100E7A008A111A3083120313C100F730C000C00B65
:100E8A00442FC10B442F492F0A128A150A270A1226
:100E9A008A11D030F0000030F1000A128A151C279E
:100EAA000A128A110330F0000030F1000A128A1582
:100EBA001C270A128A110A128A1513270A128A1182
:100ECA001A3083120313C100F730C000C00B6B2F16
:100EDA00C10B6B2F702F0A128A150A270A128A1160
:100EEA00D130F0000030F1000A128A151C270A12CC
:100EFA008A110030F000F1000A128A159B270A12A3
:100F0A008A11700883120313C0004008D2000A1223
:100F1A008A1513270A128A111A3083120313C10081
:100F2A00F730C000C00B972FC10B972F9C2F0A12C6
:100F3A008A150A270A128A11D030F0000030F1000F
:100F4A000A128A151C270A128A110130F000003091
:100F5A00F1000A128A151C270A128A110A128A1526
:100F6A0013270A128A111A3083120313C100F730A9
:100F7A00C000C00BBE2FC10BBE2FC32F0A128A1589
:100F8A000A270A128A11D130F0000030F1000A1241
:100F9A008A151C270A128A110030F000F1000A1281
:100FAA008A159B270A128A11700883120313C0003C
:100FBA004008D0000A128A1513270A128A111A3019
:100FCA0083120313C100F730C000C00BEA2FC10B14
:100FDA00EA2FEF2F162E0A128A11002883134330A4
:100FEA00840056300A128A1502270A128A118301CE
:060FFA000A128A11072E05
:101DEA00F0007008831203138600080001300A12FB
:101DFA008A1548270A128A15080064008001840A95
:101E0A000406031900340406032F0A128A1526272A
:101E1A000A128A1583160313111408000A128A1566
:101E2A0026270A128A1583160313111508000A12A7
:101E3A008A1526270A128A1570088312031393003B
:101E4A0008008316031314192B2F2C2F262F110881
:101E5A001F39031D312F322F262F0800F200720876
:101E6A000A128A15F5260A128A158312031389148F
:101E7A00091109141A30F100F10B412F00008312E5
:101E8A00031309100800F30073080A128A15F526CD
:101E9A000A128A15831203138910091109140D30C5
:101EAA00F200FB30F100F10B582FF20B582F5D2F87
:101EBA00831203130910080038300A128A154827BA
:101ECA000A128A1506300A128A1548270A128A1532
:101EDA000C300A128A1548270A128A1580300A120B
:101EEA008A1548270A128A150800F600F401F50136
:101EFA008F2F74087607F3007308840000080A120B
:101F0A008A1533270A128A150130F4070318F50ACD
:101F1A000030F50774087607F3007308840083130A
:101F2A000008031D992F9A2F7E2F08000A128A157E
:101F3A0026270A128A158316031391150A128A157F
:101F4A0026270A128A15831203131308F200F301D3
:101F5A007208F4007308F5000A128A1526270A1275
:101F6A008A1570037104031DBB2FBC2FC02F831663
:101F7A0003139112C32F83160313911611167508B2
:101F8A00F1007408F0000800F200E92F8316031329
:101F9A000F088F3940388F000F14FF2F8316031351
:101FAA000F088F3950388F000F14FF2F8316031331
:101FBA000F088F3960388F000F14FF2F7030831687
:101FCA0003138F040F14FF2F7208F000F101710838
:101FDA00003A0319F12FFF2F7008013A0319CB2F8A
:101FEA00033A0319D32F063A0319DB2F0C3A0319C4
:061FFA00E32FFF2F080099
:04400E00D420FF3F7C
:00000001FF
