:100000000A128A11F32FF20072080A128A15522777
:100010000A128A11831203138914091109141A3060
:10002000F100F10B112800008312031309100800DE
:100030000A128A157C270A128A1183160313911556
:100040000A128A157C270A128A11831203131308D5
:10005000F200F3017208F4007308F5000A128A1521
:100060007C270A128A1170037104031D382839286D
:100070003D2883160313911240288316031391160B
:1000800011167508F1007408F0000800F2006628E7
:10009000831603130F088F3940388F000F147C2804
:1000A000831603130F088F3950388F000F147C28E4
:1000B000831603130F088F3960388F000F147C28C4
:1000C0007030831603138F040F147C287208F0001D
:1000D000F1017108003A03196E287C287008013A72
:1000E00003194828033A03195028063A03195828D7
:1000F0000C3A031960287C28080028308312031367
:100100009400831603139101831203132008A400A3
:100110002108A5002208A6002308A700023003102A
:10012000A40DA50DA60DA70DFF3E031D8F282708C2
:10013000F3002608F2002508F1002408F000003042
:10014000F7007A30F6001230F5000030F4000A12A1
:100150008A1193210A128A117008FF3E8316031335
:1001600093009401871507160800F200CB28303061
:10017000F3283130F3283230F3283330F328343089
:10018000F3283530F3283630F3283730F328383069
:10019000F3283930F3287208F000F1017108003AB1
:1001A0000319D328B7287008003A0319B728013A71
:1001B0000319B928033A0319BB28013A0319BD28CA
:1001C000073A0319BF28013A0319C128033A031952
:1001D000C328013A0319C5280F3A0319C728013A61
:1001E0000319C928B72808005030F000700883129E
:1001F0000313A0004130F0007008A1005230F0005D
:100200007008A2005130F0007008A3005530F000D3
:100210007008A4004530F0007008A5004F30F000D1
:100220007008A6005330F0007008A7003A30F000C4
:100230007008A8002030F0007008A9003030F000ED
:100240007008AA004608F0007008AB002030F000EB
:100250007008AC002030F0007008AD002030F000D5
:100260007008AE002030F0007008AF0020300800A9
:1002700083120313A101FC1F3E293F294629FB09D4
:10028000FC09FB0A0319FC0AA101A10AFA1F49296A
:100290004A294F29F909FA09F90A0319FA0A7908CA
:1002A0007A040319542955298429A001A00A632935
:1002B00001300310F90DFA0DFF3E031D59290130DD
:1002C000FD007D08A007FA1F6629672958297A08CA
:1002D0007C02031D6D2979087B02031C702971299A
:1002E00077297908FB027A08031CFC03FC02013021
:1002F0000310FA0CF90CFF3E031D78290130A0020F
:10030000031D83298429672921080319882989293C
:100310008E29FB09FC09FB0A0319FC0A7C08FA0078
:100320007B08F90008000030FC000030FB000030C2
:10033000FA000030F90073087204710470040319A4
:10034000A229A329F029FD01FD0AB3290130F800F3
:100350000310F00DF10DF20DF30DF80BA82901308B
:10036000F8007808FD07F31FB629B729A629013040
:10037000F8000310F90DFA0DFB0DFC0DF80BB9296F
:1003800073087702031DCE2972087602031DCE2959
:1003900071087502031DCE2970087402031CD1294F
:1003A000D229E1297008F4027108031C710FF502CB
:1003B0007208031C720FF6027308031C730FF70216
:1003C000791401300310F30CF20CF10CF00CFF3E29
:1003D000031DE2290130FD02031DEF29F029B72991
:1003E0007C08F3007B08F2007A08F1007908F0003D
:1003F0000800F601F11FFD29FE29052AF009F1097F
:10040000F00A0319F10AF601F60AF31F082A092A6D
:10041000122AF209F309F20A0319F30A0130F4006F
:100420007408F606F701F801700871040319192A17
:100430001A2A512AF501F50A282A01300310F00D75
:10044000F10DFF3E031D1E2A0130F4007408F5076C
:10045000F11F2B2A2C2A1D2A01300310F70DF80D4D
:10046000FF3E031D2D2A71087302031D392A7008EF
:100470007202031C3C2A3D2A442A7008F2027108C9
:10048000031CF303F302771401300310F10CF00C9A
:10049000FF3E031D452A0130F502031D502A512A53
:1004A0002C2A76080319552A562A5B2AF709F809D7
:1004B000F70A0319F80A7808F1007708F000080035
:1004C000831203134608A2002208A5003F08A200D9
:1004D0002208A6003E08A2002208A7002E30A20093
:1004E0002208A8002030A2002208A9003C08A2008F
:1004F0002208AA003D08A2002208AB003A30A20060
:100500002208AC003A08A2002208AD003B08A20075
:100510002208AE002030A2002208AF000A30F90005
:100520000030FA000A30F0000030F1003708A20075
:10053000A3012208F2002308F3000A128A11F9210C
:100540000A128A117108FC007008FB000A128A1155
:1005500038210A128A117908303E83120313A4004D
:100560002408B0000A30F9000030FA003708A20071
:10057000A3012208FB002308FC000A128A1138217B
:100580000A128A117908303E83120313A40024084A
:10059000B100DF30A2002208B2004330A2002208DE
:1005A000B3002030A2002208B400253008008316D2
:1005B00003178801890183160313850186018801C9
:1005C00089018312031385018601880108300A120C
:1005D0008A1146200A128A11003083120313A300E5
:1005E0000130A2008630A100A030A0000A128A11BA
:1005F0007D200A128A110A128A1560270A128A11AE
:10060000D030F0000030F1000A128A1572270A1269
:100610008A110230F0000030F1000A128A157227A8
:100620000A128A110630F0000030F1000A128A1511
:1006300072270A128A110A128A1569270A128A1168
:100640001A3083120313A900F730A800A80B262B39
:10065000A90B262B2B2B0A128A1560270A128A1146
:10066000D130F0000030F1000A128A1572270A1208
:100670008A110030F000F1000A128A1118200A12C3
:100680008A11700883120313A8002808C5000A12F3
:100690008A1569270A128A111A3083120313A900D6
:1006A000F730A800A80B522BA90B522B572B0A127C
:1006B0008A1560270A128A11D030F0000030F1004C
:1006C0000A128A1572270A128A110130F0000030CE
:1006D000F1000A128A1572270A128A115930F000A5
:1006E0000030F1000A128A1572270A128A110A12C2
:1006F0008A1569270A128A111A3083120313A90076
:10070000F730A800A80B822BA90B822B872B0A128B
:100710008A1560270A128A11D130F0000030F100EA
:100720000A128A1572270A128A110030F000F100AD
:100730000A128A1118200A128A11700883120313F0
:10074000A8002808C5000A128A1569270A128A110A
:100750001A3083120313A900F730A800A80BAE2BA0
:10076000A90BAE2BB32B0A128A1560270A128A1125
:10077000D030F0000030F1000A128A1572270A12F8
:100780008A110030F000F1000A128A1572270A124D
:100790008A115830F0000030F1000A128A157227D1
:1007A0000A128A110A128A1569270A128A111A3046
:1007B00083120313A900F730A800A80BDD2BA90BA7
:1007C000DD2BE22B0A128A1560270A128A11D1301A
:1007D000F0000030F1000A128A1572270A128A11FD
:1007E0000030F000F1000A128A1118200A128A1152
:1007F000700883120313A8002808C5000A128A157E
:1008000069270A128A111A3083120313A900F730DC
:10081000A800A80B092CA90B092C0E2C0A128A156A
:1008200060270A128A11D030F0000030F1000A125D
:100830008A1572270A128A110330F0000030F10085
:100840000A128A1572270A128A110630F000003047
:10085000F1000A128A1572270A128A110A128A15E1
:1008600069270A128A111A3083120313A900F7307C
:10087000A800A80B392CA90B392C3E2C0A128A157A
:1008800060270A128A11D130F0000030F1000A12FC
:100890008A1572270A128A110030F000F1000A123C
:1008A0008A1118200A128A11700883120313A800F3
:1008B0002808C5000A128A1569270A128A111A30F7
:1008C00083120313A900F730A800A80B652CA90B0D
:1008D000652C6A2C08008312031347080A128A1138
:1008E000B5200A128A11F300730883120313C6009D
:1008F0004403031D7C2C7D2C8A2C4C30F3007308A0
:10090000C0007530F3007308BF006E30F300730849
:10091000BE00FE2C02304406031D8F2C902C9D2C13
:100920004D30F3007308C0006130F3007308BF005E
:100930007230F3007308BE00FE2C03304406031D22
:10094000A22CA32CB02C4D30F3007308C0006930EA
:10095000F3007308BF006530F3007308BE00FE2C7F
:1009600004304406031DB52CB62CC32C4A30F300CA
:100970007308C0007530F3007308BF006530F300E2
:100980007308BE00FE2C05304406031DC82CC92C7C
:10099000D62C5630F3007308C0006930F30073089A
:1009A000BF006530F3007308BE00FE2C063044061D
:1009B000031DDB2CDC2CE92C5330F3007308C00042
:1009C0006130F3007308BF006230F3007308BE00AB
:1009D000FE2C07304406031DEE2CEF2CFE2C443079
:1009E000F3007308C0006F30F3007308BF006D3070
:1009F000F3007308BE00B901B90AFE2C0A304302A5
:100A00000318032D042D282D3030F3007308BC008B
:100A100043080A128A11B5200A128A11F3007308DA
:100A200083120313BD00073043020318182D192D3C
:100A30001E2D06148614B901B90A7B2D06108610E6
:100A4000073044060319252D262D7B2DB9017B2D5A
:100A50001A30430203182D2D2E2D552D3130F30061
:100A60007308BC004308F03EF3007308B800380870
:100A70000A128A11B5200A128A11F3007308831230
:100A80000313BD00073044060319472D482D492D97
:100A9000B90108303802031C4E2D4F2D522D06147B
:100AA00086147B2D061086107B2D3230F3007308E0
:100AB000BC004308E03EF3007308B80038080A128F
:100AC0008A11B5200A128A11F300730883120313E6
:100AD000BD000614861402303802031C702D712DDF
:100AE000742DB901B90A7B2D073044060319792DFD
:100AF0007A2D7B2D262D0A3042020318802D812D60
:100B0000912D3030F3007308BA0042080A128A119E
:100B1000B5200A128A11F300730883120313BB0075
:100B2000182E1A3042020318962D972DAC2D313015
:100B3000F3007308BA004208F03EF3007308B800EF
:100B400038080A128A11B5200A128A11F3007308B4
:100B500083120313BB00182E2A3042020318B12D52
:100B6000B22DC72D3230F3007308BA004208E03EC0
:100B7000F3007308B80038080A128A11B5200A1267
:100B80008A11F300730883120313BB00182E3A3046
:100B900042020318CC2DCD2DE22D3330F300730823
:100BA000BA004208D03EF3007308B80038080A12B1
:100BB0008A11B5200A128A11F300730883120313F5
:100BC000BB00182E4A3042020318E72DE82DFD2DF8
:100BD0003430F3007308BA004208C03EF3007308D3
:100BE000B80038080A128A11B5200A128A11F300D7
:100BF000730883120313BB00182E5A3042020318E5
:100C0000022E032E182E3530F3007308BA00420866
:100C1000B03EF3007308B80038080A128A11B520F4
:100C20000A128A11F300730883120313BB00182EF3
:100C300008000A128A11D7220A128A110A128A158A
:100C4000A2270A128A11F401F40A01300A128A1545
:100C5000DC270A128A110A128A1160220A128A11EA
:100C60000A128A15BB270A128A11F401F40A02300B
:100C70000A128A15DC270A128A110A128A11F42034
:100C80000A128A110A128A15BB270A128A110A123D
:100C90008A116B240A128A110A128A1560270A1215
:100CA0008A115030F0000030F1000A128A157227C4
:100CB0000A128A110030F000F1000A128A15722718
:100CC0000A128A110A128A1569270A128A111A3021
:100CD00083120313B600F730B500B50B6D2EB60BBB
:100CE0006D2E722E0A128A1560270A128A1151304F
:100CF000F0000030F1000A128A1572270A128A11D8
:100D00000030F000F1000A128A1118200A128A112C
:100D1000700883120313B5003508C7000A128A153C
:100D200069270A128A111A3083120313B600F730AA
:100D3000B500B50B992EB60B992E9E2E0A128A1568
:100D400060270A128A116030F0000030F1000A12A8
:100D50008A1572270A128A11831203133908B50003
:100D6000B6013508F0003608F1000A128A1572271C
:100D70000A128A110A128A1569270A128A111A3070
:100D800083120313B600F730B500B50BC52EB60BB2
:100D9000C52ECA2E0A128A1560270A128A116130DE
:100DA000F0000030F1000A128A1572270A128A1127
:100DB0000030F000F1000A128A1118200A128A117C
:100DC000700883120313B5003508B7000A128A159C
:100DD00069270A128A111A3083120313B600F730FA
:100DE000B500B50BF12EB60BF12EF62E0A128A15B0
:100DF00060270A128A11D030F0000030F1000A1288
:100E00008A1572270A128A110230F0000030F100B0
:100E10000A128A1572270A128A110A128A1569277C
:100E20000A128A111A3083120313B600F730B50084
:100E3000B50B182FB60B182F1D2F0A128A15602715
:100E40000A128A11D130F0000030F1000A128A151E
:100E500072270A128A110030F000F1000A128A117A
:100E600018200A128A11700883120313B50035087E
:100E7000C3000A128A1569270A128A111A308312CE
:100E80000313B600F730B500B50B442FB60B442F53
:100E9000492F0A128A1560270A128A11D030F000F1
:100EA0000030F1000A128A1572270A128A110330E3
:100EB000F0000030F1000A128A1572270A128A1116
:100EC0000A128A1569270A128A111A30831203132B
:100ED000B600F730B500B50B6B2FB60B6B2F702F2C
:100EE0000A128A1560270A128A11D130F0000030E8
:100EF000F1000A128A1572270A128A110030F000D6
:100F0000F1000A128A1118200A128A11700883123D
:100F10000313B5003508C4000A128A1569270A129E
:100F20008A111A3083120313B600F730B500B50BDF
:100F3000972FB60B972F9C2F0A128A1560270A123B
:100F40008A11D030F0000030F1000A128A157227A1
:100F50000A128A110130F0000030F1000A128A15DD
:100F600072270A128A110A128A1569270A128A112F
:100F70001A3083120313B600F730B500B50BBE2F3D
:100F8000B60BBE2FC32F0A128A1560270A128A11C8
:100F9000D130F0000030F1000A128A1572270A12CF
:100FA0008A110030F000F1000A128A1118200A128A
:100FB0008A11700883120313B5003508C2000A12A3
:100FC0008A1569270A128A111A3083120313B60090
:100FD000F730B500B50BEA2FB60BEA2FEF2F232E13
:100FE0000A128A11002883133730840048300A120D
:100FF0008A1558270A128A1183010A128A11192E9A
:101EA400F0007008831203138800080064008001A6
:101EB400840A0406031900340406592F0A128A15E9
:101EC4007C270A128A1583160313111408000A12B8
:101ED4008A157C270A128A15831603131115080024
:101EE4000A128A157C270A128A15700883120313B2
:101EF40093000800831603131419812F822F7C2F5B
:101F040011081F39031D872F882F7C2F0800F30029
:101F140073080A128A1552270A128A1583120313A8
:101F24008910091109140D30F200FB30F100F10B96
:101F3400992FF20B992F9E2F831203130910080077
:101F440038300A128A1589270A128A1506300A12AD
:101F54008A1589270A128A150C300A128A158927CC
:101F64000A128A1580300A128A1589270A128A15DC
:101F74000800F600F401F501D02F74087607F30089
:101F84007308840000080A128A1103200A128A15B1
:101F94000130F4070318F50A0030F50774087607D2
:101FA400F3007308840083130008031DDA2FDB2F6A
:101FB400BF2F0800F6007603031DE12FE22FEE2F5A
:101FC40074087F3EF5007508F70077080A128A1531
:101FD40089270A128A15FF2F02307606031DF32F74
:101FE400F42FFF2F7408BF3EF5007508F70077083B
:0C1FF4000A128A1589270A128A150800B3
:04400E00D420FF3F7C
:00000001FF
